{
  "deployments": [
    {
      "transactions": [
        {
          "hash": "0xd2b345ab27ab2bf633dae93085c128ced0f660f5d42656d20bf9d098f687e259",
          "transactionType": "CREATE",
          "contractName": "BRNWormholeDeliveryProvider",
          "contractAddress": "0x011e9e0405bEdb87087baFC0346Eb5eb0F7Db861",
          "function": null,
          "arguments": [
            "0x0CBE91CF822c73C2315FB05100C2F714765d5c20",
            "0x0591C25ebd0580E0d4F27A82Fc2e24E7489CB5e0",
            "0xDA861C9DccFf6d1fEf7Cae71B5b538AF25063404"
          ],
          "transaction": {
            "type": "0x02",
            "from": "0xda861c9dccff6d1fef7cae71b5b538af25063404",
            "gas": "0x222d0a",
            "value": "0x0",
            "data": "0x6101008060405234620001c65760608162001f908038038091620000248285620001cb565b833981010312620001c65780516001600160a01b0380821690818303620001c65760208401519381851690818603620001c6576040015193828516809503620001c6576020936004926000978854938860018060a01b03198616178a556040519889978896167f8be0079c531659141344cd1fd0a4f28419497f9722a3daafe3b4186f6b6457e08c80a360805260c05260a052634d4502c960e11b82525afa908115620001bb5782916200016f575b61ffff821660e052604051611d8a9081620002068239608051818181607101528181610f53015281816116640152611a70015260a0518181816107f401528181610ac80152610eb2015260c05181818160250152610f98015260e05181818161069d015281816107c601528181610b0501528181610b7f01528181610ef00152818161116d015281816114b40152818161173501526117920152f35b90506020813d8211620001b2575b816200018c60209383620001cb565b81010312620001ae575161ffff81168103620001ae5761ffff915038620000d3565b5080fd5b3d91506200017d565b6040513d84823e3d90fd5b600080fd5b601f909101601f19168101906001600160401b03821190821017620001ef57604052565b634e487b7160e01b600052604160045260246000fdfe6080806040526004361015610180575b50361561001b57600080fd5b6001600160a01b037f000000000000000000000000000000000000000000000000000000000000000081163381900361016e57341561015c57602090602460405180948193634cf842b560e01b835260048301527f0000000000000000000000000000000000000000000000000000000000000000165afa90811561015057600091610114575b506001600160401b03908116600019018181116100fe571680600052600960205260406000206100d33482546115e9565b905534907f240f40c5c68d94371e3a048ba070b7023a49f55ad76d84b33446a71cf7ba05ea600080a3005b634e487b7160e01b600052601160045260246000fd5b6020813d8211610148575b8161012c60209383611376565b810103126101445761013e915061188d565b386100a2565b5080fd5b3d915061011f565b6040513d6000823e3d90fd5b60405163043f9e1160e41b8152600490fd5b604051639612e9ab60e01b8152600490fd5b60003560e01c90816303c03a40146112e257508063079c202c146110fc57806324b5fbe21461126a57806328f41de3146112305780633171aaec146111fb57806332f3e784146111315780633d77cbfd146110fc5780634713de7a146110c757806349cdb88c146110925780634f0589a6146110575780635b5bfc1e14611020578063715018a614610fc75780638406c07914610f8257806384acd1bb14610f3d5780638da5cb5b14610f145780639a8a059214610ed55780639f00edd214610e9a578063a31bcc5014610e77578063ad672dd914610e4b578063b00c567514610e10578063b0db84aa14610dd5578063b9e75e6614610c1c578063bb7c0a6314610bdb578063bd212328146104e7578063bf9321fc146104cc578063d1ffa50914610491578063d3bbf1561461043e578063e549da2e14610403578063e6a29993146103c8578063e8f62d41146103a5578063f2fde38b146103155763fa79380f146102ed573861000f565b3461031057600036600319011261031057602061030861164f565b604051908152f35b600080fd5b34610310576020366003190112610310576004356001600160a01b03818116918290036103105761034461142a565b811561038c57600054826bffffffffffffffffffffffff60a01b821617600055167f8be0079c531659141344cd1fd0a4f28419497f9722a3daafe3b4186f6b6457e0600080a3005b604051631e4fbdf760e01b815260006004820152602490fd5b346103105760203660031901126103105760206103086103c3611313565b611779565b346103105760403660031901126103105761ffff6103e4611313565b6103ec61142a565b166000526001602052602435604060002055600080f35b346103105760403660031901126103105761ffff61041f611313565b61042761142a565b166000526008602052602435604060002055600080f35b3461031057604036600319011261031057610457611313565b602435908115158092036103105761ffff9061047161142a565b16600052600560205260406000209060ff80198354169116179055600080f35b346103105760403660031901126103105761ffff6104ad611313565b6104b561142a565b166000526006602052602435604060002055600080f35b34610310576000366003190112610310576020604051308152f35b34610310576040366003190112610310576004356001600160401b038111610310576105179036906004016113fa565b906024356001600160401b038111610310576105379036906004016113fa565b600093818103610bc9579291906000935b80850361059f57600080808089335af13d1561059a573d61056881611397565b906105766040519283611376565b8152600060203d92013e5b1561058857005b604051633d2cec6f60e21b8152600490fd5b610581565b90919293946105af8683876118a1565b919084881015610bb35760059288841b870135601e1988360301811215610310578701936001600160401b03853511610310578435901b36036020850113610310576105fa916119e0565b61ffff606082015116600052600860205260406000205460e0820151918280518101039260808412610310576040519361063385611324565b6020820151906001600160a01b0382168203610310576060918652601f1901126103105761ffff9061068b60806040519261066d8461133f565b610679604082016118e2565b8452606081015160208501520161188d565b6040820152806020860152511661ffff7f0000000000000000000000000000000000000000000000000000000000000000168103610b6d575060800151818103610b4f5750508051336001600160a01b0390911603610b3d57916001600160401b03604060208501510151166000526009602052604060002054926001600160401b036040602083015101511660005260006040812055836001600160401b036040602084015101511660018060a01b03835116907f850e64039527fb832bd269c5c2bd88eb6e758a9ab0e264ff024bc4ddb5b5632b600080a46000915b8035830361078b57505050600191610780916115e9565b950193929190610548565b9091936107b760208401516107a5878535602087016118a1565b86516001600160a01b031693916119e0565b9061ffff60608301511661ffff7f0000000000000000000000000000000000000000000000000000000000000000168103610af3575060808201517f00000000000000000000000000000000000000000000000000000000000000008103610ab5575060e0820151604051908160c08101106001600160401b0360c084011117610a9f5760c0820160405261084a6118f1565b8252600060208301526000604083015260608083015260006080830152600060a083015260ff8060018301511690600291828103610a81575061088b6118f1565b918301511660018103610a62575061ffff6004830151168152602482015160208201526001600160401b03602c830151166040820152825261ffff602e820151166020830152604e810151906108eb63ffffffff60528301511682611910565b9290606085015260408084840194602086015160808801520193015160a085015260408401525190808203610a445750505161ffff82511661ffff8251161480610a33575b80610a10575b156109a95750506001926109a09260a06001600160401b03930190838251166000526009602052604060002054938281869451166000526000604081205551167ff1bdb8c3e0857564293fc3464e823f275ca0b94584d1dda423d1b0e8e69de688600080a46115e9565b94019190610769565b6040805163686d84ad60e01b8152835161ffff166004820152602084015160248201529201516001600160401b0316604483015260c49190610a0e90805161ffff16606484015260208101516084840152604001516001600160401b031660a4830152565bfd5b506001600160401b036040830151166001600160401b0360408301511614610936565b506020820151602082015114610930565b604492506040519163061bc83560e51b835260048301526024820152fd5b60449060405190633ce5fedf60e11b8252600482015260016024820152fd5b6044908360405191633ce5fedf60e11b835260048301526024820152fd5b634e487b7160e01b600052604160045260246000fd5b604490604051906312af679f60e11b82527f000000000000000000000000000000000000000000000000000000000000000060048301526024820152fd5b6040516376d1e88b60e01b815261ffff7f000000000000000000000000000000000000000000000000000000000000000081166004830152919091166024820152604490fd5b0390fd5b60405163ea8e4eb560e01b8152600490fd5b60449250604051916359f804df60e11b835260048301526024820152fd5b604051631b47225760e01b815261ffff7f000000000000000000000000000000000000000000000000000000000000000081166004830152919091166024820152604490fd5b634e487b7160e01b600052603260045260246000fd5b604051634659d67960e11b8152600490fd5b3461031057602036600319011261031057604061ffff80610bfa611313565b166000526007602052816000205490825191818116835260101c166020820152f35b3461031057606036600319011261031057610c35611313565b6044356001600160401b0391828211610310573660238301121561031057816004013591610c6283611397565b91610c706040519384611376565b83835260209384840190602493368583830101116103105781600092868993018537860101528484805181010312610310578051600181101561031057610cb681611609565b80610db257506040519385850185811088821117610d9d5760405260008552604081805181010312610310576040610cef60ff93611629565b91015185521680610d7f5750610d0a90823590845190611456565b9092518185604051610d1b81611324565b83815201526000604051958601526040850152606084015260608352608083019383851090851117610d6b5750826040528252604060a0820152607f1990610d6660c08201826113d5565b030190f35b634e487b7160e01b60009081526041600452fd5b60449060008460405192631d4a282160e21b84526004840152820152fd5b84634e487b7160e01b60005260416004526000fd5b80610dbd8592611609565b60ff604051916301959ad760e71b8352166004820152fd5b346103105760403660031901126103105761ffff610df1611313565b610df961142a565b166000526002602052602435604060002055600080f35b346103105760403660031901126103105761ffff610e2c611313565b610e3461142a565b166000526003602052602435604060002055600080f35b346103105760203660031901126103105760043560005260096020526020604060002054604051908152f35b34610310576020366003190112610310576020610308610e95611313565b611708565b346103105760003660031901126103105760206040517f00000000000000000000000000000000000000000000000000000000000000008152f35b3461031057600036600319011261031057602060405161ffff7f0000000000000000000000000000000000000000000000000000000000000000168152f35b34610310576000366003190112610310576000546040516001600160a01b039091168152602090f35b34610310576000366003190112610310576040517f00000000000000000000000000000000000000000000000000000000000000006001600160a01b03168152602090f35b34610310576000366003190112610310576040517f00000000000000000000000000000000000000000000000000000000000000006001600160a01b03168152602090f35b3461031057600036600319011261031057610fe061142a565b600080546001600160a01b0319811682556001600160a01b03167f8be0079c531659141344cd1fd0a4f28419497f9722a3daafe3b4186f6b6457e08280a3005b3461031057606036600319011261031057604061104b61103e611313565b6044359060243590611456565b82519182526020820152f35b346103105760403660031901126103105761ffff611073611313565b61107b61142a565b166000526004602052602435604060002055600080f35b346103105760203660031901126103105761ffff6110ae611313565b1660005260016020526020604060002054604051908152f35b346103105760203660031901126103105761ffff6110e3611313565b1660005260026020526020604060002054604051908152f35b346103105760203660031901126103105761ffff611118611313565b1660005260066020526020604060002054604051908152f35b346103105760403660031901126103105761ffff6111d281611151611313565b169182600052600760205263ffffffff6111ca604060002092807f0000000000000000000000000000000000000000000000000000000000000000166000526002602052604060002054956000526111c56111bc6040600020549554928084169360101c1683611637565b966024356115f6565b6115f6565b9316906115f6565b9081156111e55760209160405191048152f35b634e487b7160e01b600052601260045260246000fd5b346103105760203660031901126103105761ffff611217611313565b1660005260046020526020604060002054604051908152f35b346103105760203660031901126103105761ffff61124c611313565b166000526005602052602060ff604060002054166040519015158152f35b3461031057606036600319011261031057611283611313565b60403660231901126103105761129761142a565b61ffff80911660005260076020526040600020906024358181168091036103105782549160443590811681036103105763ffff00009060101b169163ffffffff191617179055600080f35b346103105760203660031901126103105760209061ffff611301611313565b16600052600382526040600020548152f35b6004359061ffff8216820361031057565b604081019081106001600160401b03821117610a9f57604052565b606081019081106001600160401b03821117610a9f57604052565b61016081019081106001600160401b03821117610a9f57604052565b90601f801991011681019081106001600160401b03821117610a9f57604052565b6001600160401b038111610a9f57601f01601f191660200190565b60005b8381106113c55750506000910152565b81810151838201526020016113b5565b906020916113ee815180928185528580860191016113b2565b601f01601f1916010190565b9181601f84011215610310578235916001600160401b038311610310576020808501948460051b01011161031057565b6000546001600160a01b0316330361143e57565b60405163118cdaa760e01b8152336004820152602490fd5b91929061ffff8093166000818152600160205260409283822054956114a161147e88846115f6565b9261149b61148b87611708565b9161149588611779565b906115f6565b906115e9565b90848452600760205261151a86852091807f000000000000000000000000000000000000000000000000000000000000000016865260026020526115148b63ffffffff61150c8b8a20548b8b526115068d8c20549854968088169760101c1687611637565b936115f6565b9116906115f6565b926115f6565b906000198201908282116115d55790611532916115e9565b9181156115c15761155f61156d93869593611567938a98508581106000146115bb575084915b04906115e9565b61149b61164f565b986115e9565b928152600460205220541061157f5750565b5162461bcd60e51b8152602060048201526016602482015275115e18d959591cc81b585e1a5b5d5b48189d5919d95d60521b6044820152606490fd5b91611558565b634e487b7160e01b85526012600452602485fd5b634e487b7160e01b86526011600452602486fd5b919082018092116100fe57565b818102929181159184041417156100fe57565b6001111561161357565b634e487b7160e01b600052602160045260246000fd5b519060ff8216820361031057565b91909163ffffffff808094169116019182116100fe57565b604051631a90a21960e01b81526020816004817f00000000000000000000000000000000000000000000000000000000000000006001600160a01b03165afa908115610150576000916116a0575090565b906020823d82116116c9575b816116b960209383611376565b810103126116c657505190565b80fd5b3d91506116ac565b156116d857565b60405162461bcd60e51b81526020600482015260086024820152674f766572666c6f7760c01b6044820152606490fd5b61175a9061ffff811660005260036020526117336040600020546001602052604060002054906115f6565b7f0000000000000000000000000000000000000000000000000000000000000000916117d4565b6117766fffffffffffffffffffffffffffffffff8211156116d1565b90565b6117b79061ffff811660005260016020526040600020547f0000000000000000000000000000000000000000000000000000000000000000916117d4565b6affffffffffffffffffffff906117d0828211156116d1565b1690565b90916117fd9061ffff8060009416845260026020526040842054911683526040832054936115f6565b908180046001148215171561187957821591838004600114831715611865576000198401908482116118515790611833916115e9565b9161183d57500490565b634e487b7160e01b81526012600452602490fd5b634e487b7160e01b83526011600452602483fd5b634e487b7160e01b82526011600452602482fd5b634e487b7160e01b81526011600452602490fd5b51906001600160401b038216820361031057565b9190811015610bb35760051b81013590601e19813603018212156103105701908135916001600160401b038311610310576020018236038113610310579190565b519061ffff8216820361031057565b604051906118fe8261133f565b60006040838281528260208201520152565b9091821561196a57826052019160405193601f8116918215611961575b6052838701938385019201015b8184106119515750508452601f01601f1916604052565b805184526020938401930161193a565b6020925061192d565b915050604051602081018181106001600160401b03821117610a9f5760405260008152600036813790605290565b519063ffffffff8216820361031057565b909291926119b681611397565b916119c46040519384611376565b8294828452828201116103105760206119de9301906113b2565b565b6000826044604051936119f28561135a565b8385528360208601528360408601528360608601528360808601528360a08601528360c0860152606060e08601528361014061010096828882015260606101208201520152604051958693849263607ec5ef60e11b845260206004850152816024850152848401378181018301859052601f01601f191681010301817f00000000000000000000000000000000000000000000000000000000000000006001600160a01b03165afa90811561015057600092600091600093611adf575b505015611aba575090565b604051639e251d3160e01b815260206004820152908190610b399060248301906113d5565b92509250503d91826000823e611af58382611376565b60608184810103126103105780516001600160401b0381116103105761016081830185840103126103105760405192611b2d8461135a565b611b38828401611629565b8452611b48602083850101611998565b6020850152611b5b604083850101611998565b6040850152611b6e6060838501016118e2565b6060850152608082840101516080850152611b8d60a08385010161188d565b60a0850152611ba060c083850101611629565b60c085015260e082840101516001600160401b0381116103105782840101858401601f8201121561031057611bde90868501906020815191016119a9565b60e0850152611bf08183850101611998565b9084015261012081830101516001600160401b03811161031057848301601f828486010101121561031057808284010151906001600160401b038211610a9f5760405191611c4460208260051b0184611376565b808352602083019187860160208360071b83888a010101011161031057916020838688010101925b60208360071b82888a010101018410611ce4575050505090610140916101208501528201015161014083015260208101519283151584036103105760408201516001600160401b03811161031057820190808301601f8301121561031057611cdb9201906020815191016119a9565b90913880611aaf565b6080848a8901031261031057604051918260808101106001600160401b03608085011117610a9f5760206080918483839601604052875181528288015183820152611d3160408901611629565b6040820152611d4260608901611629565b60608201528152019401939150611c6c56fea2646970667358221220ab9281b53727999335c26b711aa8a1e199cd3f8db7bba5b28513145ee70a18f764736f6c634300081300330000000000000000000000000cbe91cf822c73c2315fb05100c2f714765d5c200000000000000000000000000591c25ebd0580e0d4f27a82fc2e24e7489cb5e0000000000000000000000000da861c9dccff6d1fef7cae71b5b538af25063404",
            "nonce": "0x40b",
            "accessList": []
          },
          "additionalContracts": [],
          "isFixedGasLimit": false
        },
        {
          "hash": "0x752eddb1670482918df17dfc0f462e77a4c6af5f9fdabe822d510aaffaa96da7",
          "transactionType": "CREATE",
          "contractName": "MockWormholeReceiver",
          "contractAddress": "0x2dB7eCD8459EE9C7c5BCAe4fDb122209b67526f3",
          "function": null,
          "arguments": [
            "0x0CBE91CF822c73C2315FB05100C2F714765d5c20",
            "0x011e9e0405bEdb87087baFC0346Eb5eb0F7Db861",
            "0x0591C25ebd0580E0d4F27A82Fc2e24E7489CB5e0",
            "5"
          ],
          "transaction": {
            "type": "0x02",
            "from": "0xda861c9dccff6d1fef7cae71b5b538af25063404",
            "gas": "0x1473c1",
            "value": "0x0",
            "data": "0x6101003461010957601f6112c938819003918201601f19168301916001600160401b0383118484101761010e57808492608094604052833981010312610109578051906001600160a01b038083168303610109576020820151918183168303610109576040810151918216820361010957606001519161ffff8316830361010957600060025560805260a05260c05260e0526040516111a49081610125823960805181818161020901528181610b250152610d4e015260a0518181816101c4015281816102e201528181610bf10152610dff015260c05181818160e101528181610a7601528181610bbf0152610dd1015260e05181818161017f015281816103a10152610a270152f35b600080fd5b634e487b7160e01b600052604160045260246000fdfe608080604052600436101561001d575b50361561001b57600080fd5b005b60003560e01c9081630563e6c114610e6a575080631096ff1614610ccd57806317697cf4146108f7578063359d5c99146108c6578063529dca32146102385780635a9d0c07146101f35780638406c079146101ae57806384acd1bb14610169578063853255cc1461014b5780638c6f66bb146101055780639a8a0592146100c65763f8a8fd6d146100ae573861000f565b346100c15760003660031901126100c157005b600080fd5b346100c15760003660031901126100c157602060405161ffff7f0000000000000000000000000000000000000000000000000000000000000000168152f35b346100c15760403660031901126100c15761011e610e9b565b6024356001600160a01b03811691908290036100c15761ffff166000526001602052604060002055600080f35b346100c15760003660031901126100c1576020600254604051908152f35b346100c15760003660031901126100c1576040517f00000000000000000000000000000000000000000000000000000000000000006001600160a01b03168152602090f35b346100c15760003660031901126100c1576040517f00000000000000000000000000000000000000000000000000000000000000006001600160a01b03168152602090f35b346100c15760003660031901126100c1576040517f00000000000000000000000000000000000000000000000000000000000000006001600160a01b03168152602090f35b60a03660031901126100c1576004356001600160401b0381116100c157610263903690600401610f35565b602435906001600160401b0382116100c157366023830112156100c15781600401359161028f83610f03565b9061029d6040519283610ee2565b83825260208201906024829560051b820101903682116100c15760248101925b82841061089757505050506064359261ffff841684036100c1576001600160a01b03927f00000000000000000000000000000000000000000000000000000000000000008416330361083e57608435600052600060205260ff604060002054166108055760843560005260006020526040600020600160ff198254161790556020818051810103126100c15760208101519461035b8660025461110b565b60025560005b845181101561072c5761039c600061037983886110e1565b516040518093819263607ec5ef60e11b8352602060048401526024830190610fc9565b03818a7f0000000000000000000000000000000000000000000000000000000000000000165afa80156107205760009160009060009261048e575b501561046557506060810161ffff815116600052600160205260406000205490608083019182510361043757505060e00151906020828051810103126100c15761042a602061043293015160025461110b565b6002556110bc565b610361565b9061ffff6044925116600052604060002054905160405191639acafc7f60e01b835260048301526024820152fd5b60405163d6d86f6360e01b81526020600482015290819061048a906024830190610fc9565b0390fd5b925050503d90816000823e6104a38282610ee2565b60608183810103126100c1578051906001600160401b0382116100c157610160918281830185840103126100c1576040519283818101106001600160401b03828601111761070a5783016040526104fb818301611118565b835261050b602082840101611126565b602084015261051e604082840101611126565b60408401526060818301015161ffff811681036100c157606084015260808183010151608084015261055460a082840101610f92565b60a084015260c06105688183850101611118565b9084015260e081830101516001600160401b0381116100c15781830101848301601f820112156100c1576105a59085840190602081519101611137565b60e08401526101006105ba8183850101611126565b9084015261012081830101516001600160401b0381116100c157848301601f82848601010112156100c157808284010151906105f582610f03565b916106036040519384610ee2565b8083526020830187860160208360071b85888a01010101116100c1576020838688010101905b60208360071b85888a01010101821061069e57505050506101208401526101408091830101519083015260208101519283151584036100c15760408201516001600160401b0381116100c157820190808301601f830112156100c157610696920190602081519101611137565b90918a6103d7565b6080828a890103126100c1576040518060808101106001600160401b0360808301111761070a576080918183602093016040528451815282850151838201526106e960408601611118565b60408201526106fa60608601611118565b6060820152815201910190610629565b634e487b7160e01b600052604160045260246000fd5b6040513d6000823e3d90fd5b50837fcf1a0bd229abb2fb88db3526bccb2a8a74945232833a558c1e008af010e1445c602088604051908152a161076e6040519360a0855260a0850190610fc9565b90838203602085015251808252602082019160208260051b82010195926000915b8383106107d857604435604088015261ffff8616606088015260843560808801527f27cb89f6a8c613c45cefd4690d9f7f193e2b94829e24e8599a171702b76aeefa87890388a1005b90919293966020806107f6600193601f198682030187528b51610fc9565b9901930193019193929061078f565b60405162461bcd60e51b81526020600482015260116024820152702932b83630bc90383937ba32b1ba34b7b760791b6044820152606490fd5b60405162461bcd60e51b815260206004820152602b60248201527f6d73672e73656e646572206973206e6f7420576f726d686f6c6552656c61796560448201526a391031b7b73a3930b1ba1760a91b6064820152608490fd5b83356001600160401b0381116100c1576020916108bb839260243691870101610f35565b8152019301926102bd565b346100c15760203660031901126100c1576004356000526000602052602060ff604060002054166040519015158152f35b346100c15760c03660031901126100c157610910610e9b565b604435906001600160401b0382116100c157366023830112156100c15781600401359161093c83610f03565b9261094a6040519485610ee2565b8084526024602085019160051b830101913683116100c157602401905b828210610cbd5750505060a4356001600160a01b03811690036100c157815161098f81610f03565b9061099d6040519283610ee2565b8082526109ac601f1991610f03565b0160005b818110610c9157505060005b8351811015610aff578060206109d5610a1393876110e1565b5160405190828201528181526109ea81610ec7565b604051809481926358cd21bf60e11b835260006004840152606060248401526064830190610fc9565b600060448301520381600060018060a01b037f0000000000000000000000000000000000000000000000000000000000000000165af1801561072057600090610ac4575b610abf92506001600160401b0360405191610a7183610eac565b61ffff7f0000000000000000000000000000000000000000000000000000000000000000168352306020840152166040820152610aae82856110e1565b52610ab981846110e1565b506110bc565b6109bc565b506020823d602011610af7575b81610ade60209383610ee2565b810103126100c157610af2610abf92610f92565b610a57565b3d9150610ad1565b5060405191602435602084015260208352610b1983610ec7565b61ffff60018060a01b037f00000000000000000000000000000000000000000000000000000000000000001691169060405192632dadfe0f60e11b84526084356064359160408680610b8585878a6004850160409194939261ffff606083019616825260208201520152565b03816000885af193841561072057602096600095610c59575b5090610bed9160405198899788968796633a2c767d60e01b8852309361ffff7f0000000000000000000000000000000000000000000000000000000000000000169360a4359060048b01610fee565b03917f00000000000000000000000000000000000000000000000000000000000000006001600160a01b03165af1801561072057610c2757005b6020813d602011610c51575b81610c4060209383610ee2565b810103126100c15761001b90610f92565b3d9150610c33565b610bed92919550610c819060403d604011610c8a575b610c798183610ee2565b810190610f7c565b50949091610b9e565b503d610c6f565b602090604051610ca081610eac565b6000815260008382015260006040820152828286010152016109b0565b8135815260209182019101610967565b346100c15760a03660031901126100c157610ce6610e9b565b60443590608435906064356001600160a01b0380841684036100c157604051610d7b60209560243587840152868352610d1e83610ec7565b60408051632dadfe0f60e11b815261ffff97881660048201819052602482018b90526044820188905297909390917f0000000000000000000000000000000000000000000000000000000000000000871691859081906064820190565b03816000855af193841561072057600094610e48575b5060405190898201928284106001600160401b0385111761070a578a99610dfb94604052600084526040519c8d9a8b998a98633a2c767d60e01b8a5230957f0000000000000000000000000000000000000000000000000000000000000000169460048b01610fee565b03927f0000000000000000000000000000000000000000000000000000000000000000165af1801561072057610e2d57005b81813d8311610e41575b610c408183610ee2565b503d610e37565b610e6291945060403d604011610c8a57610c798183610ee2565b50928a610d91565b346100c15760203660031901126100c15760209061ffff610e89610e9b565b16600052600182526040600020548152f35b6004359061ffff821682036100c157565b606081019081106001600160401b0382111761070a57604052565b604081019081106001600160401b0382111761070a57604052565b90601f801991011681019081106001600160401b0382111761070a57604052565b6001600160401b03811161070a5760051b60200190565b6001600160401b03811161070a57601f01601f191660200190565b81601f820112156100c157803590610f4c82610f1a565b92610f5a6040519485610ee2565b828452602083830101116100c157816000926020809301838601378301015290565b91908260409103126100c1576020825192015190565b51906001600160401b03821682036100c157565b60005b838110610fb95750506000910152565b8181015183820152602001610fa9565b90602091610fe281518092818552858086019101610fa6565b601f01601f1916010190565b99989790928a978897959496939661ffff96878092168a52600160a01b600190039586948560209b168b8d01526101608060409e8f01528c0161103091610fc9565b9a60609889820152608081016000905260a001521660c08d01521660e08b0152166101008901528784036101208901528280875195868152019601946000925b8584106110895750505050505050610140600091930152565b865180518216895280860151898701528201516001600160401b0316888301529682019695840195600190930192611070565b60001981146110cb5760010190565b634e487b7160e01b600052601160045260246000fd5b80518210156110f55760209160051b010190565b634e487b7160e01b600052603260045260246000fd5b919082018092116110cb57565b519060ff821682036100c157565b519063ffffffff821682036100c157565b9092919261114481610f1a565b916111526040519384610ee2565b8294828452828201116100c157602061116c930190610fa6565b56fea2646970667358221220de1bd42c9fb8890b8b05c896a1402f0dc8d1e51ae8c4ca92143c8893ccd7f47f64736f6c634300081300330000000000000000000000000cbe91cf822c73c2315fb05100c2f714765d5c20000000000000000000000000011e9e0405bedb87087bafc0346eb5eb0f7db8610000000000000000000000000591c25ebd0580e0d4f27a82fc2e24e7489cb5e00000000000000000000000000000000000000000000000000000000000000005",
            "nonce": "0x40c",
            "accessList": []
          },
          "additionalContracts": [],
          "isFixedGasLimit": false
        }
      ],
      "receipts": [
        {
          "transactionHash": "0xd2b345ab27ab2bf633dae93085c128ced0f660f5d42656d20bf9d098f687e259",
          "transactionIndex": "0x1",
          "blockHash": "0x0c2e154494a321f76a7a41421466d0d5a3034c36920681b0089f87f7717b43fd",
          "blockNumber": "0x2365496",
          "from": "0xDA861C9DccFf6d1fEf7Cae71B5b538AF25063404",
          "to": null,
          "cumulativeGasUsed": "0x1c4378",
          "gasUsed": "0x1a4a08",
          "contractAddress": "0x011e9e0405bEdb87087baFC0346Eb5eb0F7Db861",
          "logs": [
            {
              "address": "0x011e9e0405bEdb87087baFC0346Eb5eb0F7Db861",
              "topics": [
                "0x8be0079c531659141344cd1fd0a4f28419497f9722a3daafe3b4186f6b6457e0",
                "0x0000000000000000000000000000000000000000000000000000000000000000",
                "0x000000000000000000000000da861c9dccff6d1fef7cae71b5b538af25063404"
              ],
              "data": "0x",
              "blockHash": "0x0c2e154494a321f76a7a41421466d0d5a3034c36920681b0089f87f7717b43fd",
              "blockNumber": "0x2365496",
              "transactionHash": "0xd2b345ab27ab2bf633dae93085c128ced0f660f5d42656d20bf9d098f687e259",
              "transactionIndex": "0x1",
              "logIndex": "0x4",
              "removed": false
            },
            {
              "address": "0x0000000000000000000000000000000000001010",
              "topics": [
                "0x4dfe1bbbcf077ddc3e01291eea2d5c70c2b422b415d95645b9adcfd678cb1d63",
                "0x0000000000000000000000000000000000000000000000000000000000001010",
                "0x000000000000000000000000da861c9dccff6d1fef7cae71b5b538af25063404",
                "0x000000000000000000000000f903ba9e006193c1527bfbe65fe2123704ea3f99"
              ],
              "data": "0x000000000000000000000000000000000000000000000000000c3dea3ccfff8000000000000000000000000000000000000000000000000002661ded15ac1d02000000000000000000000000000000000000000000000f5178b3bb2b754598af0000000000000000000000000000000000000000000000000259e002d8dc1d82000000000000000000000000000000000000000000000f5178bff915b215982f",
              "blockHash": "0x0c2e154494a321f76a7a41421466d0d5a3034c36920681b0089f87f7717b43fd",
              "blockNumber": "0x2365496",
              "transactionHash": "0xd2b345ab27ab2bf633dae93085c128ced0f660f5d42656d20bf9d098f687e259",
              "transactionIndex": "0x1",
              "logIndex": "0x5",
              "removed": false
            }
          ],
          "status": "0x1",
          "logsBloom": "0x04000000000000000000000000000000000000000000000000800010000000000000000000000020000000000000000000008000000000000000000000000020000000000000000000000000000000800001000000000000000100000000000000000000020000000000000000000800000000000000000080000000000000400000000000000000000000000000000000000000000000000000000000000000200000000000000000000000000000000000000000000000000000102400004000000000000400000001000000000000000000000000000000100000001020000000000000000000000000000000000000000000000000000000000000100000",
          "type": "0x2",
          "effectiveGasPrice": "0x77359400"
        },
        {
          "transactionHash": "0x752eddb1670482918df17dfc0f462e77a4c6af5f9fdabe822d510aaffaa96da7",
          "transactionIndex": "0x2",
          "blockHash": "0x0c2e154494a321f76a7a41421466d0d5a3034c36920681b0089f87f7717b43fd",
          "blockNumber": "0x2365496",
          "from": "0xDA861C9DccFf6d1fEf7Cae71B5b538AF25063404",
          "to": null,
          "cumulativeGasUsed": "0x2bfef9",
          "gasUsed": "0xfbb81",
          "contractAddress": "0x2dB7eCD8459EE9C7c5BCAe4fDb122209b67526f3",
          "logs": [
            {
              "address": "0x0000000000000000000000000000000000001010",
              "topics": [
                "0x4dfe1bbbcf077ddc3e01291eea2d5c70c2b422b415d95645b9adcfd678cb1d63",
                "0x0000000000000000000000000000000000000000000000000000000000001010",
                "0x000000000000000000000000da861c9dccff6d1fef7cae71b5b538af25063404",
                "0x000000000000000000000000f903ba9e006193c1527bfbe65fe2123704ea3f99"
              ],
              "data": "0x00000000000000000000000000000000000000000000000000075373e01fdbf00000000000000000000000000000000000000000000000000259e002d7377d02000000000000000000000000000000000000000000000f5178bff915b215982f00000000000000000000000000000000000000000000000002528c8ef717a112000000000000000000000000000000000000000000000f5178c74c899235741f",
              "blockHash": "0x0c2e154494a321f76a7a41421466d0d5a3034c36920681b0089f87f7717b43fd",
              "blockNumber": "0x2365496",
              "transactionHash": "0x752eddb1670482918df17dfc0f462e77a4c6af5f9fdabe822d510aaffaa96da7",
              "transactionIndex": "0x2",
              "logIndex": "0x6",
              "removed": false
            }
          ],
          "status": "0x1",
          "logsBloom": "0x04000000000000000000000000000000000000000000000000000010000000000000000000000020000000000000000000008000000000000000000000000000000000000000000000000000000000800000000000000000000100000000000000000000000000000000000000000000000000000000000080000000000000000000000000000000000000000000000000000000000000000000000000000000200000000000000000000000000000000000000000000000000000002400004000000000000000000001000000000000000000000000000000100000001000000000000000000000000000000000000000000000000000000000000000100000",
          "type": "0x2",
          "effectiveGasPrice": "0x77359400"
        }
      ],
      "libraries": [],
      "pending": [],
      "returns": {},
      "timestamp": 1687361016,
      "chain": 80001,
      "multi": true,
      "commit": "61e8658"
    },
    {
      "transactions": [
        {
          "hash": "0x8d480c3536ea4603927df497d26ade41428cdcb4e8d45acc16b28824c9d6817f",
          "transactionType": "CREATE",
          "contractName": "BRNWormholeDeliveryProvider",
          "contractAddress": "0x77B40546E426019B3B2677D98b0f957262298c51",
          "function": null,
          "arguments": [
            "0x7bbcE28e64B3F8b84d876Ab298393c38ad7aac4C",
            "0xA3cF45939bD6260bcFe3D66bc73d60f19e49a8BB",
            "0xDA861C9DccFf6d1fEf7Cae71B5b538AF25063404"
          ],
          "transaction": {
            "type": "0x02",
            "from": "0xda861c9dccff6d1fef7cae71b5b538af25063404",
            "gas": "0x222d1a",
            "value": "0x0",
            "data": "0x6101008060405234620001c65760608162001f908038038091620000248285620001cb565b833981010312620001c65780516001600160a01b0380821690818303620001c65760208401519381851690818603620001c6576040015193828516809503620001c6576020936004926000978854938860018060a01b03198616178a556040519889978896167f8be0079c531659141344cd1fd0a4f28419497f9722a3daafe3b4186f6b6457e08c80a360805260c05260a052634d4502c960e11b82525afa908115620001bb5782916200016f575b61ffff821660e052604051611d8a9081620002068239608051818181607101528181610f53015281816116640152611a70015260a0518181816107f401528181610ac80152610eb2015260c05181818160250152610f98015260e05181818161069d015281816107c601528181610b0501528181610b7f01528181610ef00152818161116d015281816114b40152818161173501526117920152f35b90506020813d8211620001b2575b816200018c60209383620001cb565b81010312620001ae575161ffff81168103620001ae5761ffff915038620000d3565b5080fd5b3d91506200017d565b6040513d84823e3d90fd5b600080fd5b601f909101601f19168101906001600160401b03821190821017620001ef57604052565b634e487b7160e01b600052604160045260246000fdfe6080806040526004361015610180575b50361561001b57600080fd5b6001600160a01b037f000000000000000000000000000000000000000000000000000000000000000081163381900361016e57341561015c57602090602460405180948193634cf842b560e01b835260048301527f0000000000000000000000000000000000000000000000000000000000000000165afa90811561015057600091610114575b506001600160401b03908116600019018181116100fe571680600052600960205260406000206100d33482546115e9565b905534907f240f40c5c68d94371e3a048ba070b7023a49f55ad76d84b33446a71cf7ba05ea600080a3005b634e487b7160e01b600052601160045260246000fd5b6020813d8211610148575b8161012c60209383611376565b810103126101445761013e915061188d565b386100a2565b5080fd5b3d915061011f565b6040513d6000823e3d90fd5b60405163043f9e1160e41b8152600490fd5b604051639612e9ab60e01b8152600490fd5b60003560e01c90816303c03a40146112e257508063079c202c146110fc57806324b5fbe21461126a57806328f41de3146112305780633171aaec146111fb57806332f3e784146111315780633d77cbfd146110fc5780634713de7a146110c757806349cdb88c146110925780634f0589a6146110575780635b5bfc1e14611020578063715018a614610fc75780638406c07914610f8257806384acd1bb14610f3d5780638da5cb5b14610f145780639a8a059214610ed55780639f00edd214610e9a578063a31bcc5014610e77578063ad672dd914610e4b578063b00c567514610e10578063b0db84aa14610dd5578063b9e75e6614610c1c578063bb7c0a6314610bdb578063bd212328146104e7578063bf9321fc146104cc578063d1ffa50914610491578063d3bbf1561461043e578063e549da2e14610403578063e6a29993146103c8578063e8f62d41146103a5578063f2fde38b146103155763fa79380f146102ed573861000f565b3461031057600036600319011261031057602061030861164f565b604051908152f35b600080fd5b34610310576020366003190112610310576004356001600160a01b03818116918290036103105761034461142a565b811561038c57600054826bffffffffffffffffffffffff60a01b821617600055167f8be0079c531659141344cd1fd0a4f28419497f9722a3daafe3b4186f6b6457e0600080a3005b604051631e4fbdf760e01b815260006004820152602490fd5b346103105760203660031901126103105760206103086103c3611313565b611779565b346103105760403660031901126103105761ffff6103e4611313565b6103ec61142a565b166000526001602052602435604060002055600080f35b346103105760403660031901126103105761ffff61041f611313565b61042761142a565b166000526008602052602435604060002055600080f35b3461031057604036600319011261031057610457611313565b602435908115158092036103105761ffff9061047161142a565b16600052600560205260406000209060ff80198354169116179055600080f35b346103105760403660031901126103105761ffff6104ad611313565b6104b561142a565b166000526006602052602435604060002055600080f35b34610310576000366003190112610310576020604051308152f35b34610310576040366003190112610310576004356001600160401b038111610310576105179036906004016113fa565b906024356001600160401b038111610310576105379036906004016113fa565b600093818103610bc9579291906000935b80850361059f57600080808089335af13d1561059a573d61056881611397565b906105766040519283611376565b8152600060203d92013e5b1561058857005b604051633d2cec6f60e21b8152600490fd5b610581565b90919293946105af8683876118a1565b919084881015610bb35760059288841b870135601e1988360301811215610310578701936001600160401b03853511610310578435901b36036020850113610310576105fa916119e0565b61ffff606082015116600052600860205260406000205460e0820151918280518101039260808412610310576040519361063385611324565b6020820151906001600160a01b0382168203610310576060918652601f1901126103105761ffff9061068b60806040519261066d8461133f565b610679604082016118e2565b8452606081015160208501520161188d565b6040820152806020860152511661ffff7f0000000000000000000000000000000000000000000000000000000000000000168103610b6d575060800151818103610b4f5750508051336001600160a01b0390911603610b3d57916001600160401b03604060208501510151166000526009602052604060002054926001600160401b036040602083015101511660005260006040812055836001600160401b036040602084015101511660018060a01b03835116907f850e64039527fb832bd269c5c2bd88eb6e758a9ab0e264ff024bc4ddb5b5632b600080a46000915b8035830361078b57505050600191610780916115e9565b950193929190610548565b9091936107b760208401516107a5878535602087016118a1565b86516001600160a01b031693916119e0565b9061ffff60608301511661ffff7f0000000000000000000000000000000000000000000000000000000000000000168103610af3575060808201517f00000000000000000000000000000000000000000000000000000000000000008103610ab5575060e0820151604051908160c08101106001600160401b0360c084011117610a9f5760c0820160405261084a6118f1565b8252600060208301526000604083015260608083015260006080830152600060a083015260ff8060018301511690600291828103610a81575061088b6118f1565b918301511660018103610a62575061ffff6004830151168152602482015160208201526001600160401b03602c830151166040820152825261ffff602e820151166020830152604e810151906108eb63ffffffff60528301511682611910565b9290606085015260408084840194602086015160808801520193015160a085015260408401525190808203610a445750505161ffff82511661ffff8251161480610a33575b80610a10575b156109a95750506001926109a09260a06001600160401b03930190838251166000526009602052604060002054938281869451166000526000604081205551167ff1bdb8c3e0857564293fc3464e823f275ca0b94584d1dda423d1b0e8e69de688600080a46115e9565b94019190610769565b6040805163686d84ad60e01b8152835161ffff166004820152602084015160248201529201516001600160401b0316604483015260c49190610a0e90805161ffff16606484015260208101516084840152604001516001600160401b031660a4830152565bfd5b506001600160401b036040830151166001600160401b0360408301511614610936565b506020820151602082015114610930565b604492506040519163061bc83560e51b835260048301526024820152fd5b60449060405190633ce5fedf60e11b8252600482015260016024820152fd5b6044908360405191633ce5fedf60e11b835260048301526024820152fd5b634e487b7160e01b600052604160045260246000fd5b604490604051906312af679f60e11b82527f000000000000000000000000000000000000000000000000000000000000000060048301526024820152fd5b6040516376d1e88b60e01b815261ffff7f000000000000000000000000000000000000000000000000000000000000000081166004830152919091166024820152604490fd5b0390fd5b60405163ea8e4eb560e01b8152600490fd5b60449250604051916359f804df60e11b835260048301526024820152fd5b604051631b47225760e01b815261ffff7f000000000000000000000000000000000000000000000000000000000000000081166004830152919091166024820152604490fd5b634e487b7160e01b600052603260045260246000fd5b604051634659d67960e11b8152600490fd5b3461031057602036600319011261031057604061ffff80610bfa611313565b166000526007602052816000205490825191818116835260101c166020820152f35b3461031057606036600319011261031057610c35611313565b6044356001600160401b0391828211610310573660238301121561031057816004013591610c6283611397565b91610c706040519384611376565b83835260209384840190602493368583830101116103105781600092868993018537860101528484805181010312610310578051600181101561031057610cb681611609565b80610db257506040519385850185811088821117610d9d5760405260008552604081805181010312610310576040610cef60ff93611629565b91015185521680610d7f5750610d0a90823590845190611456565b9092518185604051610d1b81611324565b83815201526000604051958601526040850152606084015260608352608083019383851090851117610d6b5750826040528252604060a0820152607f1990610d6660c08201826113d5565b030190f35b634e487b7160e01b60009081526041600452fd5b60449060008460405192631d4a282160e21b84526004840152820152fd5b84634e487b7160e01b60005260416004526000fd5b80610dbd8592611609565b60ff604051916301959ad760e71b8352166004820152fd5b346103105760403660031901126103105761ffff610df1611313565b610df961142a565b166000526002602052602435604060002055600080f35b346103105760403660031901126103105761ffff610e2c611313565b610e3461142a565b166000526003602052602435604060002055600080f35b346103105760203660031901126103105760043560005260096020526020604060002054604051908152f35b34610310576020366003190112610310576020610308610e95611313565b611708565b346103105760003660031901126103105760206040517f00000000000000000000000000000000000000000000000000000000000000008152f35b3461031057600036600319011261031057602060405161ffff7f0000000000000000000000000000000000000000000000000000000000000000168152f35b34610310576000366003190112610310576000546040516001600160a01b039091168152602090f35b34610310576000366003190112610310576040517f00000000000000000000000000000000000000000000000000000000000000006001600160a01b03168152602090f35b34610310576000366003190112610310576040517f00000000000000000000000000000000000000000000000000000000000000006001600160a01b03168152602090f35b3461031057600036600319011261031057610fe061142a565b600080546001600160a01b0319811682556001600160a01b03167f8be0079c531659141344cd1fd0a4f28419497f9722a3daafe3b4186f6b6457e08280a3005b3461031057606036600319011261031057604061104b61103e611313565b6044359060243590611456565b82519182526020820152f35b346103105760403660031901126103105761ffff611073611313565b61107b61142a565b166000526004602052602435604060002055600080f35b346103105760203660031901126103105761ffff6110ae611313565b1660005260016020526020604060002054604051908152f35b346103105760203660031901126103105761ffff6110e3611313565b1660005260026020526020604060002054604051908152f35b346103105760203660031901126103105761ffff611118611313565b1660005260066020526020604060002054604051908152f35b346103105760403660031901126103105761ffff6111d281611151611313565b169182600052600760205263ffffffff6111ca604060002092807f0000000000000000000000000000000000000000000000000000000000000000166000526002602052604060002054956000526111c56111bc6040600020549554928084169360101c1683611637565b966024356115f6565b6115f6565b9316906115f6565b9081156111e55760209160405191048152f35b634e487b7160e01b600052601260045260246000fd5b346103105760203660031901126103105761ffff611217611313565b1660005260046020526020604060002054604051908152f35b346103105760203660031901126103105761ffff61124c611313565b166000526005602052602060ff604060002054166040519015158152f35b3461031057606036600319011261031057611283611313565b60403660231901126103105761129761142a565b61ffff80911660005260076020526040600020906024358181168091036103105782549160443590811681036103105763ffff00009060101b169163ffffffff191617179055600080f35b346103105760203660031901126103105760209061ffff611301611313565b16600052600382526040600020548152f35b6004359061ffff8216820361031057565b604081019081106001600160401b03821117610a9f57604052565b606081019081106001600160401b03821117610a9f57604052565b61016081019081106001600160401b03821117610a9f57604052565b90601f801991011681019081106001600160401b03821117610a9f57604052565b6001600160401b038111610a9f57601f01601f191660200190565b60005b8381106113c55750506000910152565b81810151838201526020016113b5565b906020916113ee815180928185528580860191016113b2565b601f01601f1916010190565b9181601f84011215610310578235916001600160401b038311610310576020808501948460051b01011161031057565b6000546001600160a01b0316330361143e57565b60405163118cdaa760e01b8152336004820152602490fd5b91929061ffff8093166000818152600160205260409283822054956114a161147e88846115f6565b9261149b61148b87611708565b9161149588611779565b906115f6565b906115e9565b90848452600760205261151a86852091807f000000000000000000000000000000000000000000000000000000000000000016865260026020526115148b63ffffffff61150c8b8a20548b8b526115068d8c20549854968088169760101c1687611637565b936115f6565b9116906115f6565b926115f6565b906000198201908282116115d55790611532916115e9565b9181156115c15761155f61156d93869593611567938a98508581106000146115bb575084915b04906115e9565b61149b61164f565b986115e9565b928152600460205220541061157f5750565b5162461bcd60e51b8152602060048201526016602482015275115e18d959591cc81b585e1a5b5d5b48189d5919d95d60521b6044820152606490fd5b91611558565b634e487b7160e01b85526012600452602485fd5b634e487b7160e01b86526011600452602486fd5b919082018092116100fe57565b818102929181159184041417156100fe57565b6001111561161357565b634e487b7160e01b600052602160045260246000fd5b519060ff8216820361031057565b91909163ffffffff808094169116019182116100fe57565b604051631a90a21960e01b81526020816004817f00000000000000000000000000000000000000000000000000000000000000006001600160a01b03165afa908115610150576000916116a0575090565b906020823d82116116c9575b816116b960209383611376565b810103126116c657505190565b80fd5b3d91506116ac565b156116d857565b60405162461bcd60e51b81526020600482015260086024820152674f766572666c6f7760c01b6044820152606490fd5b61175a9061ffff811660005260036020526117336040600020546001602052604060002054906115f6565b7f0000000000000000000000000000000000000000000000000000000000000000916117d4565b6117766fffffffffffffffffffffffffffffffff8211156116d1565b90565b6117b79061ffff811660005260016020526040600020547f0000000000000000000000000000000000000000000000000000000000000000916117d4565b6affffffffffffffffffffff906117d0828211156116d1565b1690565b90916117fd9061ffff8060009416845260026020526040842054911683526040832054936115f6565b908180046001148215171561187957821591838004600114831715611865576000198401908482116118515790611833916115e9565b9161183d57500490565b634e487b7160e01b81526012600452602490fd5b634e487b7160e01b83526011600452602483fd5b634e487b7160e01b82526011600452602482fd5b634e487b7160e01b81526011600452602490fd5b51906001600160401b038216820361031057565b9190811015610bb35760051b81013590601e19813603018212156103105701908135916001600160401b038311610310576020018236038113610310579190565b519061ffff8216820361031057565b604051906118fe8261133f565b60006040838281528260208201520152565b9091821561196a57826052019160405193601f8116918215611961575b6052838701938385019201015b8184106119515750508452601f01601f1916604052565b805184526020938401930161193a565b6020925061192d565b915050604051602081018181106001600160401b03821117610a9f5760405260008152600036813790605290565b519063ffffffff8216820361031057565b909291926119b681611397565b916119c46040519384611376565b8294828452828201116103105760206119de9301906113b2565b565b6000826044604051936119f28561135a565b8385528360208601528360408601528360608601528360808601528360a08601528360c0860152606060e08601528361014061010096828882015260606101208201520152604051958693849263607ec5ef60e11b845260206004850152816024850152848401378181018301859052601f01601f191681010301817f00000000000000000000000000000000000000000000000000000000000000006001600160a01b03165afa90811561015057600092600091600093611adf575b505015611aba575090565b604051639e251d3160e01b815260206004820152908190610b399060248301906113d5565b92509250503d91826000823e611af58382611376565b60608184810103126103105780516001600160401b0381116103105761016081830185840103126103105760405192611b2d8461135a565b611b38828401611629565b8452611b48602083850101611998565b6020850152611b5b604083850101611998565b6040850152611b6e6060838501016118e2565b6060850152608082840101516080850152611b8d60a08385010161188d565b60a0850152611ba060c083850101611629565b60c085015260e082840101516001600160401b0381116103105782840101858401601f8201121561031057611bde90868501906020815191016119a9565b60e0850152611bf08183850101611998565b9084015261012081830101516001600160401b03811161031057848301601f828486010101121561031057808284010151906001600160401b038211610a9f5760405191611c4460208260051b0184611376565b808352602083019187860160208360071b83888a010101011161031057916020838688010101925b60208360071b82888a010101018410611ce4575050505090610140916101208501528201015161014083015260208101519283151584036103105760408201516001600160401b03811161031057820190808301601f8301121561031057611cdb9201906020815191016119a9565b90913880611aaf565b6080848a8901031261031057604051918260808101106001600160401b03608085011117610a9f5760206080918483839601604052875181528288015183820152611d3160408901611629565b6040820152611d4260608901611629565b60608201528152019401939150611c6c56fea2646970667358221220ab9281b53727999335c26b711aa8a1e199cd3f8db7bba5b28513145ee70a18f764736f6c634300081300330000000000000000000000007bbce28e64b3f8b84d876ab298393c38ad7aac4c000000000000000000000000a3cf45939bd6260bcfe3d66bc73d60f19e49a8bb000000000000000000000000da861c9dccff6d1fef7cae71b5b538af25063404",
            "nonce": "0x323",
            "accessList": []
          },
          "additionalContracts": [],
          "isFixedGasLimit": false
        },
        {
          "hash": "0xe4803e51b0b4c59562b2e3b2405c3c98ef86bb1b25bb3fb897d8258fb875eb46",
          "transactionType": "CREATE",
          "contractName": "MockWormholeReceiver",
          "contractAddress": "0x54A2faaa64CAf9B47af4527a0E6E60F4749640d0",
          "function": null,
          "arguments": [
            "0x7bbcE28e64B3F8b84d876Ab298393c38ad7aac4C",
            "0x77B40546E426019B3B2677D98b0f957262298c51",
            "0xA3cF45939bD6260bcFe3D66bc73d60f19e49a8BB",
            "6"
          ],
          "transaction": {
            "type": "0x02",
            "from": "0xda861c9dccff6d1fef7cae71b5b538af25063404",
            "gas": "0x1473d0",
            "value": "0x0",
            "data": "0x6101003461010957601f6112c938819003918201601f19168301916001600160401b0383118484101761010e57808492608094604052833981010312610109578051906001600160a01b038083168303610109576020820151918183168303610109576040810151918216820361010957606001519161ffff8316830361010957600060025560805260a05260c05260e0526040516111a49081610125823960805181818161020901528181610b250152610d4e015260a0518181816101c4015281816102e201528181610bf10152610dff015260c05181818160e101528181610a7601528181610bbf0152610dd1015260e05181818161017f015281816103a10152610a270152f35b600080fd5b634e487b7160e01b600052604160045260246000fdfe608080604052600436101561001d575b50361561001b57600080fd5b005b60003560e01c9081630563e6c114610e6a575080631096ff1614610ccd57806317697cf4146108f7578063359d5c99146108c6578063529dca32146102385780635a9d0c07146101f35780638406c079146101ae57806384acd1bb14610169578063853255cc1461014b5780638c6f66bb146101055780639a8a0592146100c65763f8a8fd6d146100ae573861000f565b346100c15760003660031901126100c157005b600080fd5b346100c15760003660031901126100c157602060405161ffff7f0000000000000000000000000000000000000000000000000000000000000000168152f35b346100c15760403660031901126100c15761011e610e9b565b6024356001600160a01b03811691908290036100c15761ffff166000526001602052604060002055600080f35b346100c15760003660031901126100c1576020600254604051908152f35b346100c15760003660031901126100c1576040517f00000000000000000000000000000000000000000000000000000000000000006001600160a01b03168152602090f35b346100c15760003660031901126100c1576040517f00000000000000000000000000000000000000000000000000000000000000006001600160a01b03168152602090f35b346100c15760003660031901126100c1576040517f00000000000000000000000000000000000000000000000000000000000000006001600160a01b03168152602090f35b60a03660031901126100c1576004356001600160401b0381116100c157610263903690600401610f35565b602435906001600160401b0382116100c157366023830112156100c15781600401359161028f83610f03565b9061029d6040519283610ee2565b83825260208201906024829560051b820101903682116100c15760248101925b82841061089757505050506064359261ffff841684036100c1576001600160a01b03927f00000000000000000000000000000000000000000000000000000000000000008416330361083e57608435600052600060205260ff604060002054166108055760843560005260006020526040600020600160ff198254161790556020818051810103126100c15760208101519461035b8660025461110b565b60025560005b845181101561072c5761039c600061037983886110e1565b516040518093819263607ec5ef60e11b8352602060048401526024830190610fc9565b03818a7f0000000000000000000000000000000000000000000000000000000000000000165afa80156107205760009160009060009261048e575b501561046557506060810161ffff815116600052600160205260406000205490608083019182510361043757505060e00151906020828051810103126100c15761042a602061043293015160025461110b565b6002556110bc565b610361565b9061ffff6044925116600052604060002054905160405191639acafc7f60e01b835260048301526024820152fd5b60405163d6d86f6360e01b81526020600482015290819061048a906024830190610fc9565b0390fd5b925050503d90816000823e6104a38282610ee2565b60608183810103126100c1578051906001600160401b0382116100c157610160918281830185840103126100c1576040519283818101106001600160401b03828601111761070a5783016040526104fb818301611118565b835261050b602082840101611126565b602084015261051e604082840101611126565b60408401526060818301015161ffff811681036100c157606084015260808183010151608084015261055460a082840101610f92565b60a084015260c06105688183850101611118565b9084015260e081830101516001600160401b0381116100c15781830101848301601f820112156100c1576105a59085840190602081519101611137565b60e08401526101006105ba8183850101611126565b9084015261012081830101516001600160401b0381116100c157848301601f82848601010112156100c157808284010151906105f582610f03565b916106036040519384610ee2565b8083526020830187860160208360071b85888a01010101116100c1576020838688010101905b60208360071b85888a01010101821061069e57505050506101208401526101408091830101519083015260208101519283151584036100c15760408201516001600160401b0381116100c157820190808301601f830112156100c157610696920190602081519101611137565b90918a6103d7565b6080828a890103126100c1576040518060808101106001600160401b0360808301111761070a576080918183602093016040528451815282850151838201526106e960408601611118565b60408201526106fa60608601611118565b6060820152815201910190610629565b634e487b7160e01b600052604160045260246000fd5b6040513d6000823e3d90fd5b50837fcf1a0bd229abb2fb88db3526bccb2a8a74945232833a558c1e008af010e1445c602088604051908152a161076e6040519360a0855260a0850190610fc9565b90838203602085015251808252602082019160208260051b82010195926000915b8383106107d857604435604088015261ffff8616606088015260843560808801527f27cb89f6a8c613c45cefd4690d9f7f193e2b94829e24e8599a171702b76aeefa87890388a1005b90919293966020806107f6600193601f198682030187528b51610fc9565b9901930193019193929061078f565b60405162461bcd60e51b81526020600482015260116024820152702932b83630bc90383937ba32b1ba34b7b760791b6044820152606490fd5b60405162461bcd60e51b815260206004820152602b60248201527f6d73672e73656e646572206973206e6f7420576f726d686f6c6552656c61796560448201526a391031b7b73a3930b1ba1760a91b6064820152608490fd5b83356001600160401b0381116100c1576020916108bb839260243691870101610f35565b8152019301926102bd565b346100c15760203660031901126100c1576004356000526000602052602060ff604060002054166040519015158152f35b346100c15760c03660031901126100c157610910610e9b565b604435906001600160401b0382116100c157366023830112156100c15781600401359161093c83610f03565b9261094a6040519485610ee2565b8084526024602085019160051b830101913683116100c157602401905b828210610cbd5750505060a4356001600160a01b03811690036100c157815161098f81610f03565b9061099d6040519283610ee2565b8082526109ac601f1991610f03565b0160005b818110610c9157505060005b8351811015610aff578060206109d5610a1393876110e1565b5160405190828201528181526109ea81610ec7565b604051809481926358cd21bf60e11b835260006004840152606060248401526064830190610fc9565b600060448301520381600060018060a01b037f0000000000000000000000000000000000000000000000000000000000000000165af1801561072057600090610ac4575b610abf92506001600160401b0360405191610a7183610eac565b61ffff7f0000000000000000000000000000000000000000000000000000000000000000168352306020840152166040820152610aae82856110e1565b52610ab981846110e1565b506110bc565b6109bc565b506020823d602011610af7575b81610ade60209383610ee2565b810103126100c157610af2610abf92610f92565b610a57565b3d9150610ad1565b5060405191602435602084015260208352610b1983610ec7565b61ffff60018060a01b037f00000000000000000000000000000000000000000000000000000000000000001691169060405192632dadfe0f60e11b84526084356064359160408680610b8585878a6004850160409194939261ffff606083019616825260208201520152565b03816000885af193841561072057602096600095610c59575b5090610bed9160405198899788968796633a2c767d60e01b8852309361ffff7f0000000000000000000000000000000000000000000000000000000000000000169360a4359060048b01610fee565b03917f00000000000000000000000000000000000000000000000000000000000000006001600160a01b03165af1801561072057610c2757005b6020813d602011610c51575b81610c4060209383610ee2565b810103126100c15761001b90610f92565b3d9150610c33565b610bed92919550610c819060403d604011610c8a575b610c798183610ee2565b810190610f7c565b50949091610b9e565b503d610c6f565b602090604051610ca081610eac565b6000815260008382015260006040820152828286010152016109b0565b8135815260209182019101610967565b346100c15760a03660031901126100c157610ce6610e9b565b60443590608435906064356001600160a01b0380841684036100c157604051610d7b60209560243587840152868352610d1e83610ec7565b60408051632dadfe0f60e11b815261ffff97881660048201819052602482018b90526044820188905297909390917f0000000000000000000000000000000000000000000000000000000000000000871691859081906064820190565b03816000855af193841561072057600094610e48575b5060405190898201928284106001600160401b0385111761070a578a99610dfb94604052600084526040519c8d9a8b998a98633a2c767d60e01b8a5230957f0000000000000000000000000000000000000000000000000000000000000000169460048b01610fee565b03927f0000000000000000000000000000000000000000000000000000000000000000165af1801561072057610e2d57005b81813d8311610e41575b610c408183610ee2565b503d610e37565b610e6291945060403d604011610c8a57610c798183610ee2565b50928a610d91565b346100c15760203660031901126100c15760209061ffff610e89610e9b565b16600052600182526040600020548152f35b6004359061ffff821682036100c157565b606081019081106001600160401b0382111761070a57604052565b604081019081106001600160401b0382111761070a57604052565b90601f801991011681019081106001600160401b0382111761070a57604052565b6001600160401b03811161070a5760051b60200190565b6001600160401b03811161070a57601f01601f191660200190565b81601f820112156100c157803590610f4c82610f1a565b92610f5a6040519485610ee2565b828452602083830101116100c157816000926020809301838601378301015290565b91908260409103126100c1576020825192015190565b51906001600160401b03821682036100c157565b60005b838110610fb95750506000910152565b8181015183820152602001610fa9565b90602091610fe281518092818552858086019101610fa6565b601f01601f1916010190565b99989790928a978897959496939661ffff96878092168a52600160a01b600190039586948560209b168b8d01526101608060409e8f01528c0161103091610fc9565b9a60609889820152608081016000905260a001521660c08d01521660e08b0152166101008901528784036101208901528280875195868152019601946000925b8584106110895750505050505050610140600091930152565b865180518216895280860151898701528201516001600160401b0316888301529682019695840195600190930192611070565b60001981146110cb5760010190565b634e487b7160e01b600052601160045260246000fd5b80518210156110f55760209160051b010190565b634e487b7160e01b600052603260045260246000fd5b919082018092116110cb57565b519060ff821682036100c157565b519063ffffffff821682036100c157565b9092919261114481610f1a565b916111526040519384610ee2565b8294828452828201116100c157602061116c930190610fa6565b56fea2646970667358221220de1bd42c9fb8890b8b05c896a1402f0dc8d1e51ae8c4ca92143c8893ccd7f47f64736f6c634300081300330000000000000000000000007bbce28e64b3f8b84d876ab298393c38ad7aac4c00000000000000000000000077b40546e426019b3b2677d98b0f957262298c51000000000000000000000000a3cf45939bd6260bcfe3d66bc73d60f19e49a8bb0000000000000000000000000000000000000000000000000000000000000006",
            "nonce": "0x324",
            "accessList": []
          },
          "additionalContracts": [],
          "isFixedGasLimit": false
        }
      ],
      "receipts": [
        {
          "transactionHash": "0x8d480c3536ea4603927df497d26ade41428cdcb4e8d45acc16b28824c9d6817f",
          "transactionIndex": "0x0",
          "blockHash": "0x0f6498a39e0db2d0735195f3138b0179ad603abad178730c5f4a43450d16b398",
          "blockNumber": "0x1642e9f",
          "from": "0xDA861C9DccFf6d1fEf7Cae71B5b538AF25063404",
          "to": null,
          "cumulativeGasUsed": "0x1a4a14",
          "gasUsed": "0x1a4a14",
          "contractAddress": "0x77B40546E426019B3B2677D98b0f957262298c51",
          "logs": [
            {
              "address": "0x77B40546E426019B3B2677D98b0f957262298c51",
              "topics": [
                "0x8be0079c531659141344cd1fd0a4f28419497f9722a3daafe3b4186f6b6457e0",
                "0x0000000000000000000000000000000000000000000000000000000000000000",
                "0x000000000000000000000000da861c9dccff6d1fef7cae71b5b538af25063404"
              ],
              "data": "0x",
              "blockHash": "0x0f6498a39e0db2d0735195f3138b0179ad603abad178730c5f4a43450d16b398",
              "blockNumber": "0x1642e9f",
              "transactionHash": "0x8d480c3536ea4603927df497d26ade41428cdcb4e8d45acc16b28824c9d6817f",
              "transactionIndex": "0x0",
              "logIndex": "0x0",
              "removed": false
            }
          ],
          "status": "0x1",
          "logsBloom": "0x04000000000000000000000000000000000000000000000000800000000000000000000000000000000000000000000020000000000000000000000000000000000000000000000000000000000000000001000000000000000000000000000000000000020000000000000000000800000000000000000000000000000000400000000000000010000000000000040000000000000000000000000000000000000000000000000000000000000000000000000000000000000000002400000000000000000000000000000000000000000000000000000000000000000020000000000000000000000000000000000000000000000000000000000000000000",
          "type": "0x2",
          "effectiveGasPrice": "0x684ee1800"
        },
        {
          "transactionHash": "0xe4803e51b0b4c59562b2e3b2405c3c98ef86bb1b25bb3fb897d8258fb875eb46",
          "transactionIndex": "0x3",
          "blockHash": "0x3d2088ba2bd5693784e0f416ed68705f6a3ef6c6b6211f62df3ae3db9ade5bf4",
          "blockNumber": "0x1642ea0",
          "from": "0xDA861C9DccFf6d1fEf7Cae71B5b538AF25063404",
          "to": null,
          "cumulativeGasUsed": "0x1612c0",
          "gasUsed": "0xfbb8d",
          "contractAddress": "0x54A2faaa64CAf9B47af4527a0E6E60F4749640d0",
          "logs": [],
          "status": "0x1",
          "logsBloom": "0x00000000000000000000000000000000000000000000000000000000000000000000000000000000000000000000000000000000000000000000000000000000000000000000000000000000000000000000000000000000000000000000000000000000000000000000000000000000000000000000000000000000000000000000000000000000000000000000000000000000000000000000000000000000000000000000000000000000000000000000000000000000000000000000000000000000000000000000000000000000000000000000000000000000000000000000000000000000000000000000000000000000000000000000000000000000",
          "type": "0x2",
          "effectiveGasPrice": "0x684ee1800"
        }
      ],
      "libraries": [],
      "pending": [],
      "returns": {},
      "timestamp": 1687361017,
      "chain": 43113,
      "multi": true,
      "commit": "61e8658"
    },
    {
      "transactions": [
        {
          "hash": "0xb839edfbd1273e4617f3f19fac1ce4c17e91dfeec6ea2d0194ba6a42428c653f",
          "transactionType": "CALL",
          "contractName": "BRNWormholeDeliveryProvider",
          "contractAddress": "0x011e9e0405bEdb87087baFC0346Eb5eb0F7Db861",
          "function": "setNativeCurrencyPrice(uint16,uint256)",
          "arguments": [
            "5",
            "590000000000000000"
          ],
          "transaction": {
            "type": "0x02",
            "from": "0xda861c9dccff6d1fef7cae71b5b538af25063404",
            "to": "0x011e9e0405bedb87087bafc0346eb5eb0f7db861",
            "gas": "0xfa3d",
            "value": "0x0",
            "data": "0xb0db84aa0000000000000000000000000000000000000000000000000000000000000005000000000000000000000000000000000000000000000000083019dfc17b0000",
            "nonce": "0x40d",
            "accessList": []
          },
          "additionalContracts": [],
          "isFixedGasLimit": false
        },
        {
          "hash": "0x3248ef2c3c04136450396757e29f59fac1cd99ef3231cb23c799004ec2176966",
          "transactionType": "CALL",
          "contractName": "BRNWormholeDeliveryProvider",
          "contractAddress": "0x011e9e0405bEdb87087baFC0346Eb5eb0F7Db861",
          "function": "setGasPrice(uint16,uint256)",
          "arguments": [
            "6",
            "16000000000"
          ],
          "transaction": {
            "type": "0x02",
            "from": "0xda861c9dccff6d1fef7cae71b5b538af25063404",
            "to": "0x011e9e0405bedb87087bafc0346eb5eb0f7db861",
            "gas": "0xfb10",
            "value": "0x0",
            "data": "0xe6a29993000000000000000000000000000000000000000000000000000000000000000600000000000000000000000000000000000000000000000000000003b9aca000",
            "nonce": "0x40e",
            "accessList": []
          },
          "additionalContracts": [],
          "isFixedGasLimit": false
        },
        {
          "hash": "0xaa97e1c11ba34edd642e5bbb97ebdf210defb3ec0bfcbe97c8bfee8308c42939",
          "transactionType": "CALL",
          "contractName": "BRNWormholeDeliveryProvider",
          "contractAddress": "0x011e9e0405bEdb87087baFC0346Eb5eb0F7Db861",
          "function": "setNativeCurrencyPrice(uint16,uint256)",
          "arguments": [
            "6",
            "11500000000000000000"
          ],
          "transaction": {
            "type": "0x02",
            "from": "0xda861c9dccff6d1fef7cae71b5b538af25063404",
            "to": "0x011e9e0405bedb87087bafc0346eb5eb0f7db861",
            "gas": "0xfa3d",
            "value": "0x0",
            "data": "0xb0db84aa00000000000000000000000000000000000000000000000000000000000000060000000000000000000000000000000000000000000000009f98351204fe0000",
            "nonce": "0x40f",
            "accessList": []
          },
          "additionalContracts": [],
          "isFixedGasLimit": false
        },
        {
          "hash": "0x29e92459c193936d0f1ca0abd7a7365b366286160dbe5272ebfd6f95019e49ce",
          "transactionType": "CALL",
          "contractName": "BRNWormholeDeliveryProvider",
          "contractAddress": "0x011e9e0405bEdb87087baFC0346Eb5eb0F7Db861",
          "function": "setDeliverGasOverhead(uint16,uint256)",
          "arguments": [
            "6",
            "100000"
          ],
          "transaction": {
            "type": "0x02",
            "from": "0xda861c9dccff6d1fef7cae71b5b538af25063404",
            "to": "0x011e9e0405bedb87087bafc0346eb5eb0f7db861",
            "gas": "0x108a1",
            "value": "0x0",
            "data": "0xb00c5675000000000000000000000000000000000000000000000000000000000000000600000000000000000000000000000000000000000000000000000000000186a0",
            "nonce": "0x410",
            "accessList": []
          },
          "additionalContracts": [],
          "isFixedGasLimit": false
        },
        {
          "hash": "0x8332acc193664548c5d1cc6b788e75af33dc29e306c2bacb88e4366c0a274048",
          "transactionType": "CALL",
          "contractName": "BRNWormholeDeliveryProvider",
          "contractAddress": "0x011e9e0405bEdb87087baFC0346Eb5eb0F7Db861",
          "function": "setMaximumBudget(uint16,uint256)",
          "arguments": [
            "6",
            "10000000000000000000"
          ],
          "transaction": {
            "type": "0x02",
            "from": "0xda861c9dccff6d1fef7cae71b5b538af25063404",
            "to": "0x011e9e0405bedb87087bafc0346eb5eb0f7db861",
            "gas": "0x10794",
            "value": "0x0",
            "data": "0x4f0589a600000000000000000000000000000000000000000000000000000000000000060000000000000000000000000000000000000000000000008ac7230489e80000",
            "nonce": "0x411",
            "accessList": []
          },
          "additionalContracts": [],
          "isFixedGasLimit": false
        },
        {
          "hash": "0x351a2e211c3735e9cf159fa952fa1a71bb90e39d5751328656f046766e71b8d2",
          "transactionType": "CALL",
          "contractName": "BRNWormholeDeliveryProvider",
          "contractAddress": "0x011e9e0405bEdb87087baFC0346Eb5eb0F7Db861",
          "function": "setIsWormholeChainSupported(uint16,bool)",
          "arguments": [
            "6",
            "true"
          ],
          "transaction": {
            "type": "0x02",
            "from": "0xda861c9dccff6d1fef7cae71b5b538af25063404",
            "to": "0x011e9e0405bedb87087bafc0346eb5eb0f7db861",
            "gas": "0xfafd",
            "value": "0x0",
            "data": "0xd3bbf15600000000000000000000000000000000000000000000000000000000000000060000000000000000000000000000000000000000000000000000000000000001",
            "nonce": "0x412",
            "accessList": []
          },
          "additionalContracts": [],
          "isFixedGasLimit": false
        },
        {
          "hash": "0x9085e476418227444fca53d7906182d4b8cc2dc55a495039a30a6c858259fdd4",
          "transactionType": "CALL",
          "contractName": "BRNWormholeDeliveryProvider",
          "contractAddress": "0x011e9e0405bEdb87087baFC0346Eb5eb0F7Db861",
          "function": "setBrnTransactionAllocatorAddress(uint16,bytes32)",
          "arguments": [
            "6",
            "0x000000000000000000000000c5c04dec932138935b6c1a31206e1fb63e2f5527"
          ],
          "transaction": {
            "type": "0x02",
            "from": "0xda861c9dccff6d1fef7cae71b5b538af25063404",
            "to": "0x011e9e0405bedb87087bafc0346eb5eb0f7db861",
            "gas": "0xfbfa",
            "value": "0x0",
            "data": "0xe549da2e0000000000000000000000000000000000000000000000000000000000000006000000000000000000000000c5c04dec932138935b6c1a31206e1fb63e2f5527",
            "nonce": "0x413",
            "accessList": []
          },
          "additionalContracts": [],
          "isFixedGasLimit": false
        },
        {
          "hash": "0x549a45f8259b3654c1f30f476e2441da4debd758a3a18efa63097b7a2a918ff4",
          "transactionType": "CALL",
          "contractName": "BRNWormholeDeliveryProvider",
          "contractAddress": "0x011e9e0405bEdb87087baFC0346Eb5eb0F7Db861",
          "function": "setAssetConversionBuffer(uint16,(uint16,uint16))",
          "arguments": [
            "6",
            "(10, 100)"
          ],
          "transaction": {
            "type": "0x02",
            "from": "0xda861c9dccff6d1fef7cae71b5b538af25063404",
            "to": "0x011e9e0405bedb87087bafc0346eb5eb0f7db861",
            "gas": "0x107fd",
            "value": "0x0",
            "data": "0x24b5fbe20000000000000000000000000000000000000000000000000000000000000006000000000000000000000000000000000000000000000000000000000000000a0000000000000000000000000000000000000000000000000000000000000064",
            "nonce": "0x414",
            "accessList": []
          },
          "additionalContracts": [],
          "isFixedGasLimit": false
        },
        {
          "hash": "0xa25105dfb3406f5fd1a1ac5fa1eeb0162eabc3ac110a766c9022294fe19b336a",
          "transactionType": "CALL",
          "contractName": "BRNWormholeDeliveryProvider",
          "contractAddress": "0x011e9e0405bEdb87087baFC0346Eb5eb0F7Db861",
          "function": "setBrnRelayerProviderAddress(uint16,bytes32)",
          "arguments": [
            "6",
            "0x00000000000000000000000077b40546e426019b3b2677d98b0f957262298c51"
          ],
          "transaction": {
            "type": "0x02",
            "from": "0xda861c9dccff6d1fef7cae71b5b538af25063404",
            "to": "0x011e9e0405bedb87087bafc0346eb5eb0f7db861",
            "gas": "0x10a8d",
            "value": "0x0",
            "data": "0xd1ffa509000000000000000000000000000000000000000000000000000000000000000600000000000000000000000077b40546e426019b3b2677d98b0f957262298c51",
            "nonce": "0x415",
            "accessList": []
          },
          "additionalContracts": [],
          "isFixedGasLimit": false
        },
        {
          "hash": "0x62d317a09140cdefc7d17f4c1482d284d87e8ac81b5d216821307fca3d7fab96",
          "transactionType": "CALL",
          "contractName": "MockWormholeReceiver",
          "contractAddress": "0x2dB7eCD8459EE9C7c5BCAe4fDb122209b67526f3",
          "function": "setMockWormholeReceiverAddress(uint16,address)",
          "arguments": [
            "6",
            "0x54A2faaa64CAf9B47af4527a0E6E60F4749640d0"
          ],
          "transaction": {
            "type": "0x02",
            "from": "0xda861c9dccff6d1fef7cae71b5b538af25063404",
            "to": "0x2db7ecd8459ee9c7c5bcae4fdb122209b67526f3",
            "gas": "0xee70",
            "value": "0x0",
            "data": "0x8c6f66bb000000000000000000000000000000000000000000000000000000000000000600000000000000000000000054a2faaa64caf9b47af4527a0e6e60f4749640d0",
            "nonce": "0x416",
            "accessList": []
          },
          "additionalContracts": [],
          "isFixedGasLimit": false
        }
      ],
      "receipts": [
        {
          "transactionHash": "0xb839edfbd1273e4617f3f19fac1ce4c17e91dfeec6ea2d0194ba6a42428c653f",
          "transactionIndex": "0x5",
          "blockHash": "0x08fdd92185cc446d36c6118bc848e17d8ca392ea17aa1a78208819d4b59654ec",
          "blockNumber": "0x2365497",
          "from": "0xDA861C9DccFf6d1fEf7Cae71B5b538AF25063404",
          "to": "0x011e9e0405bEdb87087baFC0346Eb5eb0F7Db861",
          "cumulativeGasUsed": "0x71d32",
          "gasUsed": "0xb52c",
          "contractAddress": null,
          "logs": [
            {
              "address": "0x0000000000000000000000000000000000001010",
              "topics": [
                "0x4dfe1bbbcf077ddc3e01291eea2d5c70c2b422b415d95645b9adcfd678cb1d63",
                "0x0000000000000000000000000000000000000000000000000000000000001010",
                "0x000000000000000000000000da861c9dccff6d1fef7cae71b5b538af25063404",
                "0x000000000000000000000000f903ba9e006193c1527bfbe65fe2123704ea3f99"
              ],
              "data": "0x0000000000000000000000000000000000000000000000000000545d5ece1d4000000000000000000000000000000000000000000000000002528c8ef61be902000000000000000000000000000000000000000000000f5178cde79a2e4e8e7f00000000000000000000000000000000000000000000000002523831974dcbc2000000000000000000000000000000000000000000000f5178ce3bf78d1cabbf",
              "blockHash": "0x08fdd92185cc446d36c6118bc848e17d8ca392ea17aa1a78208819d4b59654ec",
              "blockNumber": "0x2365497",
              "transactionHash": "0xb839edfbd1273e4617f3f19fac1ce4c17e91dfeec6ea2d0194ba6a42428c653f",
              "transactionIndex": "0x5",
              "logIndex": "0xd",
              "removed": false
            }
          ],
          "status": "0x1",
          "logsBloom": "0x04000000000000000000000000000000000000000000000000000010000000000000000000000020000000000000000000008000000000000000000000000000000000000000000000000000000000800000000000000000000100000000000000000000000000000000000000000000000000000000000080000000000000000000000000000000000000000000000000000000000000000000000000000000200000000000000000000000000000000000000000000000000000002400004000000000000000000001000000000000000000000000000000100000001000000000000000000000000000000000000000000000000000000000000000100000",
          "type": "0x2",
          "effectiveGasPrice": "0x77359400"
        },
        {
          "transactionHash": "0x3248ef2c3c04136450396757e29f59fac1cd99ef3231cb23c799004ec2176966",
          "transactionIndex": "0x6",
          "blockHash": "0x08fdd92185cc446d36c6118bc848e17d8ca392ea17aa1a78208819d4b59654ec",
          "blockNumber": "0x2365497",
          "from": "0xDA861C9DccFf6d1fEf7Cae71B5b538AF25063404",
          "to": "0x011e9e0405bEdb87087baFC0346Eb5eb0F7Db861",
          "cumulativeGasUsed": "0x7d2f6",
          "gasUsed": "0xb5c4",
          "contractAddress": null,
          "logs": [
            {
              "address": "0x0000000000000000000000000000000000001010",
              "topics": [
                "0x4dfe1bbbcf077ddc3e01291eea2d5c70c2b422b415d95645b9adcfd678cb1d63",
                "0x0000000000000000000000000000000000000000000000000000000000001010",
                "0x000000000000000000000000da861c9dccff6d1fef7cae71b5b538af25063404",
                "0x000000000000000000000000f903ba9e006193c1527bfbe65fe2123704ea3f99"
              ],
              "data": "0x000000000000000000000000000000000000000000000000000054a4269df3c00000000000000000000000000000000000000000000000000252383197427902000000000000000000000000000000000000000000000f5178ce3bf78d1cabbf0000000000000000000000000000000000000000000000000251e38d70a48542000000000000000000000000000000000000000000000f5178ce909bb3ba9f7f",
              "blockHash": "0x08fdd92185cc446d36c6118bc848e17d8ca392ea17aa1a78208819d4b59654ec",
              "blockNumber": "0x2365497",
              "transactionHash": "0x3248ef2c3c04136450396757e29f59fac1cd99ef3231cb23c799004ec2176966",
              "transactionIndex": "0x6",
              "logIndex": "0xe",
              "removed": false
            }
          ],
          "status": "0x1",
          "logsBloom": "0x04000000000000000000000000000000000000000000000000000010000000000000000000000020000000000000000000008000000000000000000000000000000000000000000000000000000000800000000000000000000100000000000000000000000000000000000000000000000000000000000080000000000000000000000000000000000000000000000000000000000000000000000000000000200000000000000000000000000000000000000000000000000000002400004000000000000000000001000000000000000000000000000000100000001000000000000000000000000000000000000000000000000000000000000000100000",
          "type": "0x2",
          "effectiveGasPrice": "0x77359400"
        },
        {
          "transactionHash": "0xaa97e1c11ba34edd642e5bbb97ebdf210defb3ec0bfcbe97c8bfee8308c42939",
          "transactionIndex": "0x7",
          "blockHash": "0x08fdd92185cc446d36c6118bc848e17d8ca392ea17aa1a78208819d4b59654ec",
          "blockNumber": "0x2365497",
          "from": "0xDA861C9DccFf6d1fEf7Cae71B5b538AF25063404",
          "to": "0x011e9e0405bEdb87087baFC0346Eb5eb0F7Db861",
          "cumulativeGasUsed": "0x88822",
          "gasUsed": "0xb52c",
          "contractAddress": null,
          "logs": [
            {
              "address": "0x0000000000000000000000000000000000001010",
              "topics": [
                "0x4dfe1bbbcf077ddc3e01291eea2d5c70c2b422b415d95645b9adcfd678cb1d63",
                "0x0000000000000000000000000000000000000000000000000000000000001010",
                "0x000000000000000000000000da861c9dccff6d1fef7cae71b5b538af25063404",
                "0x000000000000000000000000f903ba9e006193c1527bfbe65fe2123704ea3f99"
              ],
              "data": "0x0000000000000000000000000000000000000000000000000000545d5ece1d400000000000000000000000000000000000000000000000000251e38d70992902000000000000000000000000000000000000000000000f5178ce909bb3ba9f7f00000000000000000000000000000000000000000000000002518f3011cb0bc2000000000000000000000000000000000000000000000f5178cee4f91288bcbf",
              "blockHash": "0x08fdd92185cc446d36c6118bc848e17d8ca392ea17aa1a78208819d4b59654ec",
              "blockNumber": "0x2365497",
              "transactionHash": "0xaa97e1c11ba34edd642e5bbb97ebdf210defb3ec0bfcbe97c8bfee8308c42939",
              "transactionIndex": "0x7",
              "logIndex": "0xf",
              "removed": false
            }
          ],
          "status": "0x1",
          "logsBloom": "0x04000000000000000000000000000000000000000000000000000010000000000000000000000020000000000000000000008000000000000000000000000000000000000000000000000000000000800000000000000000000100000000000000000000000000000000000000000000000000000000000080000000000000000000000000000000000000000000000000000000000000000000000000000000200000000000000000000000000000000000000000000000000000002400004000000000000000000001000000000000000000000000000000100000001000000000000000000000000000000000000000000000000000000000000000100000",
          "type": "0x2",
          "effectiveGasPrice": "0x77359400"
        },
        {
          "transactionHash": "0x29e92459c193936d0f1ca0abd7a7365b366286160dbe5272ebfd6f95019e49ce",
          "transactionIndex": "0x8",
          "blockHash": "0x08fdd92185cc446d36c6118bc848e17d8ca392ea17aa1a78208819d4b59654ec",
          "blockNumber": "0x2365497",
          "from": "0xDA861C9DccFf6d1fEf7Cae71B5b538AF25063404",
          "to": "0x011e9e0405bEdb87087baFC0346Eb5eb0F7Db861",
          "cumulativeGasUsed": "0x93d14",
          "gasUsed": "0xb4f2",
          "contractAddress": null,
          "logs": [
            {
              "address": "0x0000000000000000000000000000000000001010",
              "topics": [
                "0x4dfe1bbbcf077ddc3e01291eea2d5c70c2b422b415d95645b9adcfd678cb1d63",
                "0x0000000000000000000000000000000000000000000000000000000000001010",
                "0x000000000000000000000000da861c9dccff6d1fef7cae71b5b538af25063404",
                "0x000000000000000000000000f903ba9e006193c1527bfbe65fe2123704ea3f99"
              ],
              "data": "0x000000000000000000000000000000000000000000000000000054425caa98e000000000000000000000000000000000000000000000000002518f3011bfb902000000000000000000000000000000000000000000000f5178cee4f91288bcbf00000000000000000000000000000000000000000000000002513aedb5152022000000000000000000000000000000000000000000000f5178cf393b6f33559f",
              "blockHash": "0x08fdd92185cc446d36c6118bc848e17d8ca392ea17aa1a78208819d4b59654ec",
              "blockNumber": "0x2365497",
              "transactionHash": "0x29e92459c193936d0f1ca0abd7a7365b366286160dbe5272ebfd6f95019e49ce",
              "transactionIndex": "0x8",
              "logIndex": "0x10",
              "removed": false
            }
          ],
          "status": "0x1",
          "logsBloom": "0x04000000000000000000000000000000000000000000000000000010000000000000000000000020000000000000000000008000000000000000000000000000000000000000000000000000000000800000000000000000000100000000000000000000000000000000000000000000000000000000000080000000000000000000000000000000000000000000000000000000000000000000000000000000200000000000000000000000000000000000000000000000000000002400004000000000000000000001000000000000000000000000000000100000001000000000000000000000000000000000000000000000000000000000000000100000",
          "type": "0x2",
          "effectiveGasPrice": "0x77359400"
        },
        {
          "transactionHash": "0x8332acc193664548c5d1cc6b788e75af33dc29e306c2bacb88e4366c0a274048",
          "transactionIndex": "0x9",
          "blockHash": "0x08fdd92185cc446d36c6118bc848e17d8ca392ea17aa1a78208819d4b59654ec",
          "blockNumber": "0x2365497",
          "from": "0xDA861C9DccFf6d1fEf7Cae71B5b538AF25063404",
          "to": "0x011e9e0405bEdb87087baFC0346Eb5eb0F7Db861",
          "cumulativeGasUsed": "0x9f14e",
          "gasUsed": "0xb43a",
          "contractAddress": null,
          "logs": [
            {
              "address": "0x0000000000000000000000000000000000001010",
              "topics": [
                "0x4dfe1bbbcf077ddc3e01291eea2d5c70c2b422b415d95645b9adcfd678cb1d63",
                "0x0000000000000000000000000000000000000000000000000000000000001010",
                "0x000000000000000000000000da861c9dccff6d1fef7cae71b5b538af25063404",
                "0x000000000000000000000000f903ba9e006193c1527bfbe65fe2123704ea3f99"
              ],
              "data": "0x000000000000000000000000000000000000000000000000000053ecae28446000000000000000000000000000000000000000000000000002513aedb509d102000000000000000000000000000000000000000000000f5178cf393b6f33559f0000000000000000000000000000000000000000000000000250e70106e18ca2000000000000000000000000000000000000000000000f5178cf8d281d5b99ff",
              "blockHash": "0x08fdd92185cc446d36c6118bc848e17d8ca392ea17aa1a78208819d4b59654ec",
              "blockNumber": "0x2365497",
              "transactionHash": "0x8332acc193664548c5d1cc6b788e75af33dc29e306c2bacb88e4366c0a274048",
              "transactionIndex": "0x9",
              "logIndex": "0x11",
              "removed": false
            }
          ],
          "status": "0x1",
          "logsBloom": "0x04000000000000000000000000000000000000000000000000000010000000000000000000000020000000000000000000008000000000000000000000000000000000000000000000000000000000800000000000000000000100000000000000000000000000000000000000000000000000000000000080000000000000000000000000000000000000000000000000000000000000000000000000000000200000000000000000000000000000000000000000000000000000002400004000000000000000000001000000000000000000000000000000100000001000000000000000000000000000000000000000000000000000000000000000100000",
          "type": "0x2",
          "effectiveGasPrice": "0x77359400"
        },
        {
          "transactionHash": "0x351a2e211c3735e9cf159fa952fa1a71bb90e39d5751328656f046766e71b8d2",
          "transactionIndex": "0xa",
          "blockHash": "0x08fdd92185cc446d36c6118bc848e17d8ca392ea17aa1a78208819d4b59654ec",
          "blockNumber": "0x2365497",
          "from": "0xDA861C9DccFf6d1fEf7Cae71B5b538AF25063404",
          "to": "0x011e9e0405bEdb87087baFC0346Eb5eb0F7Db861",
          "cumulativeGasUsed": "0xaa705",
          "gasUsed": "0xb5b7",
          "contractAddress": null,
          "logs": [
            {
              "address": "0x0000000000000000000000000000000000001010",
              "topics": [
                "0x4dfe1bbbcf077ddc3e01291eea2d5c70c2b422b415d95645b9adcfd678cb1d63",
                "0x0000000000000000000000000000000000000000000000000000000000001010",
                "0x000000000000000000000000da861c9dccff6d1fef7cae71b5b538af25063404",
                "0x000000000000000000000000f903ba9e006193c1527bfbe65fe2123704ea3f99"
              ],
              "data": "0x0000000000000000000000000000000000000000000000000000549e18e570900000000000000000000000000000000000000000000000000250e70106d64902000000000000000000000000000000000000000000000f5178cf8d281d5b99ff00000000000000000000000000000000000000000000000002509262edf0d872000000000000000000000000000000000000000000000f5178cfe1c636410a8f",
              "blockHash": "0x08fdd92185cc446d36c6118bc848e17d8ca392ea17aa1a78208819d4b59654ec",
              "blockNumber": "0x2365497",
              "transactionHash": "0x351a2e211c3735e9cf159fa952fa1a71bb90e39d5751328656f046766e71b8d2",
              "transactionIndex": "0xa",
              "logIndex": "0x12",
              "removed": false
            }
          ],
          "status": "0x1",
          "logsBloom": "0x04000000000000000000000000000000000000000000000000000010000000000000000000000020000000000000000000008000000000000000000000000000000000000000000000000000000000800000000000000000000100000000000000000000000000000000000000000000000000000000000080000000000000000000000000000000000000000000000000000000000000000000000000000000200000000000000000000000000000000000000000000000000000002400004000000000000000000001000000000000000000000000000000100000001000000000000000000000000000000000000000000000000000000000000000100000",
          "type": "0x2",
          "effectiveGasPrice": "0x77359400"
        },
        {
          "transactionHash": "0x9085e476418227444fca53d7906182d4b8cc2dc55a495039a30a6c858259fdd4",
          "transactionIndex": "0xb",
          "blockHash": "0x08fdd92185cc446d36c6118bc848e17d8ca392ea17aa1a78208819d4b59654ec",
          "blockNumber": "0x2365497",
          "from": "0xDA861C9DccFf6d1fEf7Cae71B5b538AF25063404",
          "to": "0x011e9e0405bEdb87087baFC0346Eb5eb0F7Db861",
          "cumulativeGasUsed": "0xb5d73",
          "gasUsed": "0xb66e",
          "contractAddress": null,
          "logs": [
            {
              "address": "0x0000000000000000000000000000000000001010",
              "topics": [
                "0x4dfe1bbbcf077ddc3e01291eea2d5c70c2b422b415d95645b9adcfd678cb1d63",
                "0x0000000000000000000000000000000000000000000000000000000000001010",
                "0x000000000000000000000000da861c9dccff6d1fef7cae71b5b538af25063404",
                "0x000000000000000000000000f903ba9e006193c1527bfbe65fe2123704ea3f99"
              ],
              "data": "0x000000000000000000000000000000000000000000000000000054f35032312000000000000000000000000000000000000000000000000002509262ede57d02000000000000000000000000000000000000000000000f5178cfe1c636410a8f00000000000000000000000000000000000000000000000002503d6f9db34be2000000000000000000000000000000000000000000000f5178d036b986733baf",
              "blockHash": "0x08fdd92185cc446d36c6118bc848e17d8ca392ea17aa1a78208819d4b59654ec",
              "blockNumber": "0x2365497",
              "transactionHash": "0x9085e476418227444fca53d7906182d4b8cc2dc55a495039a30a6c858259fdd4",
              "transactionIndex": "0xb",
              "logIndex": "0x13",
              "removed": false
            }
          ],
          "status": "0x1",
          "logsBloom": "0x04000000000000000000000000000000000000000000000000000010000000000000000000000020000000000000000000008000000000000000000000000000000000000000000000000000000000800000000000000000000100000000000000000000000000000000000000000000000000000000000080000000000000000000000000000000000000000000000000000000000000000000000000000000200000000000000000000000000000000000000000000000000000002400004000000000000000000001000000000000000000000000000000100000001000000000000000000000000000000000000000000000000000000000000000100000",
          "type": "0x2",
          "effectiveGasPrice": "0x77359400"
        },
        {
          "transactionHash": "0x549a45f8259b3654c1f30f476e2441da4debd758a3a18efa63097b7a2a918ff4",
          "transactionIndex": "0xc",
          "blockHash": "0x08fdd92185cc446d36c6118bc848e17d8ca392ea17aa1a78208819d4b59654ec",
          "blockNumber": "0x2365497",
          "from": "0xDA861C9DccFf6d1fEf7Cae71B5b538AF25063404",
          "to": "0x011e9e0405bEdb87087baFC0346Eb5eb0F7Db861",
          "cumulativeGasUsed": "0xc11f5",
          "gasUsed": "0xb482",
          "contractAddress": null,
          "logs": [
            {
              "address": "0x0000000000000000000000000000000000001010",
              "topics": [
                "0x4dfe1bbbcf077ddc3e01291eea2d5c70c2b422b415d95645b9adcfd678cb1d63",
                "0x0000000000000000000000000000000000000000000000000000000000001010",
                "0x000000000000000000000000da861c9dccff6d1fef7cae71b5b538af25063404",
                "0x000000000000000000000000f903ba9e006193c1527bfbe65fe2123704ea3f99"
              ],
              "data": "0x0000000000000000000000000000000000000000000000000000540e3539dfe000000000000000000000000000000000000000000000000002503d6f9da7e502000000000000000000000000000000000000000000000f5178d036b986733baf000000000000000000000000000000000000000000000000024fe961686e0522000000000000000000000000000000000000000000000f5178d08ac7bbad1b8f",
              "blockHash": "0x08fdd92185cc446d36c6118bc848e17d8ca392ea17aa1a78208819d4b59654ec",
              "blockNumber": "0x2365497",
              "transactionHash": "0x549a45f8259b3654c1f30f476e2441da4debd758a3a18efa63097b7a2a918ff4",
              "transactionIndex": "0xc",
              "logIndex": "0x14",
              "removed": false
            }
          ],
          "status": "0x1",
          "logsBloom": "0x04000000000000000000000000000000000000000000000000000010000000000000000000000020000000000000000000008000000000000000000000000000000000000000000000000000000000800000000000000000000100000000000000000000000000000000000000000000000000000000000080000000000000000000000000000000000000000000000000000000000000000000000000000000200000000000000000000000000000000000000000000000000000002400004000000000000000000001000000000000000000000000000000100000001000000000000000000000000000000000000000000000000000000000000000100000",
          "type": "0x2",
          "effectiveGasPrice": "0x77359400"
        },
        {
          "transactionHash": "0xa25105dfb3406f5fd1a1ac5fa1eeb0162eabc3ac110a766c9022294fe19b336a",
          "transactionIndex": "0xd",
          "blockHash": "0x08fdd92185cc446d36c6118bc848e17d8ca392ea17aa1a78208819d4b59654ec",
          "blockNumber": "0x2365497",
          "from": "0xDA861C9DccFf6d1fEf7Cae71B5b538AF25063404",
          "to": "0x011e9e0405bEdb87087baFC0346Eb5eb0F7Db861",
          "cumulativeGasUsed": "0xcc837",
          "gasUsed": "0xb642",
          "contractAddress": null,
          "logs": [
            {
              "address": "0x0000000000000000000000000000000000001010",
              "topics": [
                "0x4dfe1bbbcf077ddc3e01291eea2d5c70c2b422b415d95645b9adcfd678cb1d63",
                "0x0000000000000000000000000000000000000000000000000000000000001010",
                "0x000000000000000000000000da861c9dccff6d1fef7cae71b5b538af25063404",
                "0x000000000000000000000000f903ba9e006193c1527bfbe65fe2123704ea3f99"
              ],
              "data": "0x000000000000000000000000000000000000000000000000000054ded2fcc3e0000000000000000000000000000000000000000000000000024fe9616862bd02000000000000000000000000000000000000000000000f5178d08ac7bbad1b8f000000000000000000000000000000000000000000000000024f94829565f922000000000000000000000000000000000000000000000f5178d0dfa68ea9df6f",
              "blockHash": "0x08fdd92185cc446d36c6118bc848e17d8ca392ea17aa1a78208819d4b59654ec",
              "blockNumber": "0x2365497",
              "transactionHash": "0xa25105dfb3406f5fd1a1ac5fa1eeb0162eabc3ac110a766c9022294fe19b336a",
              "transactionIndex": "0xd",
              "logIndex": "0x15",
              "removed": false
            }
          ],
          "status": "0x1",
          "logsBloom": "0x04000000000000000000000000000000000000000000000000000010000000000000000000000020000000000000000000008000000000000000000000000000000000000000000000000000000000800000000000000000000100000000000000000000000000000000000000000000000000000000000080000000000000000000000000000000000000000000000000000000000000000000000000000000200000000000000000000000000000000000000000000000000000002400004000000000000000000001000000000000000000000000000000100000001000000000000000000000000000000000000000000000000000000000000000100000",
          "type": "0x2",
          "effectiveGasPrice": "0x77359400"
        },
        {
          "transactionHash": "0x62d317a09140cdefc7d17f4c1482d284d87e8ac81b5d216821307fca3d7fab96",
          "transactionIndex": "0xe",
          "blockHash": "0x08fdd92185cc446d36c6118bc848e17d8ca392ea17aa1a78208819d4b59654ec",
          "blockNumber": "0x2365497",
          "from": "0xDA861C9DccFf6d1fEf7Cae71B5b538AF25063404",
          "to": "0x2dB7eCD8459EE9C7c5BCAe4fDb122209b67526f3",
          "cumulativeGasUsed": "0xd74d7",
          "gasUsed": "0xaca0",
          "contractAddress": null,
          "logs": [
            {
              "address": "0x0000000000000000000000000000000000001010",
              "topics": [
                "0x4dfe1bbbcf077ddc3e01291eea2d5c70c2b422b415d95645b9adcfd678cb1d63",
                "0x0000000000000000000000000000000000000000000000000000000000001010",
                "0x000000000000000000000000da861c9dccff6d1fef7cae71b5b538af25063404",
                "0x000000000000000000000000f903ba9e006193c1527bfbe65fe2123704ea3f99"
              ],
              "data": "0x0000000000000000000000000000000000000000000000000000506280e1b600000000000000000000000000000000000000000000000000024f9482955a9502000000000000000000000000000000000000000000000f5178d0dfa68ea9df6f000000000000000000000000000000000000000000000000024f44201478df02000000000000000000000000000000000000000000000f5178d130090f8b956f",
              "blockHash": "0x08fdd92185cc446d36c6118bc848e17d8ca392ea17aa1a78208819d4b59654ec",
              "blockNumber": "0x2365497",
              "transactionHash": "0x62d317a09140cdefc7d17f4c1482d284d87e8ac81b5d216821307fca3d7fab96",
              "transactionIndex": "0xe",
              "logIndex": "0x16",
              "removed": false
            }
          ],
          "status": "0x1",
          "logsBloom": "0x04000000000000000000000000000000000000000000000000000010000000000000000000000020000000000000000000008000000000000000000000000000000000000000000000000000000000800000000000000000000100000000000000000000000000000000000000000000000000000000000080000000000000000000000000000000000000000000000000000000000000000000000000000000200000000000000000000000000000000000000000000000000000002400004000000000000000000001000000000000000000000000000000100000001000000000000000000000000000000000000000000000000000000000000000100000",
          "type": "0x2",
          "effectiveGasPrice": "0x77359400"
        }
      ],
      "libraries": [],
      "pending": [],
      "returns": {},
      "timestamp": 1687361017,
      "chain": 80001,
      "multi": true,
      "commit": "61e8658"
    },
    {
      "transactions": [
        {
          "hash": "0x08f024f75cea7058fb4ca361c762b061340e6e742f25253bfcaeb3768ff2de4f",
          "transactionType": "CALL",
          "contractName": "BRNWormholeDeliveryProvider",
          "contractAddress": "0x77B40546E426019B3B2677D98b0f957262298c51",
          "function": "setNativeCurrencyPrice(uint16,uint256)",
          "arguments": [
            "6",
            "11500000000000000000"
          ],
          "transaction": {
            "type": "0x02",
            "from": "0xda861c9dccff6d1fef7cae71b5b538af25063404",
            "to": "0x77b40546e426019b3b2677d98b0f957262298c51",
            "gas": "0xfa3d",
            "value": "0x0",
            "data": "0xb0db84aa00000000000000000000000000000000000000000000000000000000000000060000000000000000000000000000000000000000000000009f98351204fe0000",
            "nonce": "0x325",
            "accessList": []
          },
          "additionalContracts": [],
          "isFixedGasLimit": false
        },
        {
          "hash": "0xd26ee5c09799de59cb8d7aafa502a24ad6e33d1052c14480daf96265169c3c26",
          "transactionType": "CALL",
          "contractName": "BRNWormholeDeliveryProvider",
          "contractAddress": "0x77B40546E426019B3B2677D98b0f957262298c51",
          "function": "setGasPrice(uint16,uint256)",
          "arguments": [
            "5",
            "16000000000"
          ],
          "transaction": {
            "type": "0x02",
            "from": "0xda861c9dccff6d1fef7cae71b5b538af25063404",
            "to": "0x77b40546e426019b3b2677d98b0f957262298c51",
            "gas": "0xfb10",
            "value": "0x0",
            "data": "0xe6a29993000000000000000000000000000000000000000000000000000000000000000500000000000000000000000000000000000000000000000000000003b9aca000",
            "nonce": "0x326",
            "accessList": []
          },
          "additionalContracts": [],
          "isFixedGasLimit": false
        },
        {
          "hash": "0xd415915dadd29f550186e1cbb4958c5098be83663f9a8fe6a76336ccdecd5b9e",
          "transactionType": "CALL",
          "contractName": "BRNWormholeDeliveryProvider",
          "contractAddress": "0x77B40546E426019B3B2677D98b0f957262298c51",
          "function": "setNativeCurrencyPrice(uint16,uint256)",
          "arguments": [
            "5",
            "590000000000000000"
          ],
          "transaction": {
            "type": "0x02",
            "from": "0xda861c9dccff6d1fef7cae71b5b538af25063404",
            "to": "0x77b40546e426019b3b2677d98b0f957262298c51",
            "gas": "0xfa3d",
            "value": "0x0",
            "data": "0xb0db84aa0000000000000000000000000000000000000000000000000000000000000005000000000000000000000000000000000000000000000000083019dfc17b0000",
            "nonce": "0x327",
            "accessList": []
          },
          "additionalContracts": [],
          "isFixedGasLimit": false
        },
        {
          "hash": "0x1d18c53b69975219233de1285a7434a6ce4a68d3d430c13e504d3d26fb0d1017",
          "transactionType": "CALL",
          "contractName": "BRNWormholeDeliveryProvider",
          "contractAddress": "0x77B40546E426019B3B2677D98b0f957262298c51",
          "function": "setDeliverGasOverhead(uint16,uint256)",
          "arguments": [
            "5",
            "100000"
          ],
          "transaction": {
            "type": "0x02",
            "from": "0xda861c9dccff6d1fef7cae71b5b538af25063404",
            "to": "0x77b40546e426019b3b2677d98b0f957262298c51",
            "gas": "0x108a1",
            "value": "0x0",
            "data": "0xb00c5675000000000000000000000000000000000000000000000000000000000000000500000000000000000000000000000000000000000000000000000000000186a0",
            "nonce": "0x328",
            "accessList": []
          },
          "additionalContracts": [],
          "isFixedGasLimit": false
        },
        {
          "hash": "0xd8e7fe9cba6d3884ebaace56d3646764ef198b246f553d183458035fb413d302",
          "transactionType": "CALL",
          "contractName": "BRNWormholeDeliveryProvider",
          "contractAddress": "0x77B40546E426019B3B2677D98b0f957262298c51",
          "function": "setMaximumBudget(uint16,uint256)",
          "arguments": [
            "5",
            "10000000000000000000"
          ],
          "transaction": {
            "type": "0x02",
            "from": "0xda861c9dccff6d1fef7cae71b5b538af25063404",
            "to": "0x77b40546e426019b3b2677d98b0f957262298c51",
            "gas": "0x10794",
            "value": "0x0",
            "data": "0x4f0589a600000000000000000000000000000000000000000000000000000000000000050000000000000000000000000000000000000000000000008ac7230489e80000",
            "nonce": "0x329",
            "accessList": []
          },
          "additionalContracts": [],
          "isFixedGasLimit": false
        },
        {
          "hash": "0x277c0d5eb16eb9f2764666a54be233512046cd8f8e3e461478bf81b237a69728",
          "transactionType": "CALL",
          "contractName": "BRNWormholeDeliveryProvider",
          "contractAddress": "0x77B40546E426019B3B2677D98b0f957262298c51",
          "function": "setIsWormholeChainSupported(uint16,bool)",
          "arguments": [
            "5",
            "true"
          ],
          "transaction": {
            "type": "0x02",
            "from": "0xda861c9dccff6d1fef7cae71b5b538af25063404",
            "to": "0x77b40546e426019b3b2677d98b0f957262298c51",
            "gas": "0xfafd",
            "value": "0x0",
            "data": "0xd3bbf15600000000000000000000000000000000000000000000000000000000000000050000000000000000000000000000000000000000000000000000000000000001",
            "nonce": "0x32a",
            "accessList": []
          },
          "additionalContracts": [],
          "isFixedGasLimit": false
        },
        {
          "hash": "0x76ed331cc826bd49e8cb8bbf9dc993740ed96f0e088790aad04bd6627651b218",
          "transactionType": "CALL",
          "contractName": "BRNWormholeDeliveryProvider",
          "contractAddress": "0x77B40546E426019B3B2677D98b0f957262298c51",
          "function": "setBrnTransactionAllocatorAddress(uint16,bytes32)",
          "arguments": [
            "5",
            "0x0000000000000000000000000000000000000000000000000000000000000000"
          ],
          "transaction": {
            "type": "0x02",
            "from": "0xda861c9dccff6d1fef7cae71b5b538af25063404",
            "to": "0x77b40546e426019b3b2677d98b0f957262298c51",
            "gas": "0x97be",
            "value": "0x0",
            "data": "0xe549da2e00000000000000000000000000000000000000000000000000000000000000050000000000000000000000000000000000000000000000000000000000000000",
            "nonce": "0x32b",
            "accessList": []
          },
          "additionalContracts": [],
          "isFixedGasLimit": false
        },
        {
          "hash": "0xbb263ea54b859272d0f8a623a8c2e87ffed5230a9836559065b87f5f46bbc020",
          "transactionType": "CALL",
          "contractName": "BRNWormholeDeliveryProvider",
          "contractAddress": "0x77B40546E426019B3B2677D98b0f957262298c51",
          "function": "setAssetConversionBuffer(uint16,(uint16,uint16))",
          "arguments": [
            "5",
            "(10, 100)"
          ],
          "transaction": {
            "type": "0x02",
            "from": "0xda861c9dccff6d1fef7cae71b5b538af25063404",
            "to": "0x77b40546e426019b3b2677d98b0f957262298c51",
            "gas": "0x107fd",
            "value": "0x0",
            "data": "0x24b5fbe20000000000000000000000000000000000000000000000000000000000000005000000000000000000000000000000000000000000000000000000000000000a0000000000000000000000000000000000000000000000000000000000000064",
            "nonce": "0x32c",
            "accessList": []
          },
          "additionalContracts": [],
          "isFixedGasLimit": false
        },
        {
          "hash": "0x070b65be3820c30b9c9bf3bed07951d63ee5fb2b71c3c308301a3427b65e2863",
          "transactionType": "CALL",
          "contractName": "BRNWormholeDeliveryProvider",
          "contractAddress": "0x77B40546E426019B3B2677D98b0f957262298c51",
          "function": "setBrnRelayerProviderAddress(uint16,bytes32)",
          "arguments": [
            "5",
            "0x000000000000000000000000011e9e0405bedb87087bafc0346eb5eb0f7db861"
          ],
          "transaction": {
            "type": "0x02",
            "from": "0xda861c9dccff6d1fef7cae71b5b538af25063404",
            "to": "0x77b40546e426019b3b2677d98b0f957262298c51",
            "gas": "0x10a8d",
            "value": "0x0",
            "data": "0xd1ffa5090000000000000000000000000000000000000000000000000000000000000005000000000000000000000000011e9e0405bedb87087bafc0346eb5eb0f7db861",
            "nonce": "0x32d",
            "accessList": []
          },
          "additionalContracts": [],
          "isFixedGasLimit": false
        },
        {
          "hash": "0xb26111c20d4b1585d67130b1f285a1d97cdcc692888c33911bb753de9cd969b1",
          "transactionType": "CALL",
          "contractName": "MockWormholeReceiver",
          "contractAddress": "0x54A2faaa64CAf9B47af4527a0E6E60F4749640d0",
          "function": "setMockWormholeReceiverAddress(uint16,address)",
          "arguments": [
            "5",
            "0x2dB7eCD8459EE9C7c5BCAe4fDb122209b67526f3"
          ],
          "transaction": {
            "type": "0x02",
            "from": "0xda861c9dccff6d1fef7cae71b5b538af25063404",
            "to": "0x54a2faaa64caf9b47af4527a0e6e60f4749640d0",
            "gas": "0xee70",
            "value": "0x0",
            "data": "0x8c6f66bb00000000000000000000000000000000000000000000000000000000000000050000000000000000000000002db7ecd8459ee9c7c5bcae4fdb122209b67526f3",
            "nonce": "0x32e",
            "accessList": []
          },
          "additionalContracts": [],
          "isFixedGasLimit": false
        }
      ],
      "receipts": [
        {
          "transactionHash": "0x08f024f75cea7058fb4ca361c762b061340e6e742f25253bfcaeb3768ff2de4f",
          "transactionIndex": "0x3",
          "blockHash": "0x0446a51054aad5047fb99f3d886001d0660861c18c3a4e3227afa6c50e846adc",
          "blockNumber": "0x1642ea2",
          "from": "0xDA861C9DccFf6d1fEf7Cae71B5b538AF25063404",
          "to": "0x77B40546E426019B3B2677D98b0f957262298c51",
          "cumulativeGasUsed": "0x64c43",
          "gasUsed": "0xb52c",
          "contractAddress": null,
          "logs": [],
          "status": "0x1",
          "logsBloom": "0x00000000000000000000000000000000000000000000000000000000000000000000000000000000000000000000000000000000000000000000000000000000000000000000000000000000000000000000000000000000000000000000000000000000000000000000000000000000000000000000000000000000000000000000000000000000000000000000000000000000000000000000000000000000000000000000000000000000000000000000000000000000000000000000000000000000000000000000000000000000000000000000000000000000000000000000000000000000000000000000000000000000000000000000000000000000",
          "type": "0x2",
          "effectiveGasPrice": "0x684ee1800"
        },
        {
          "transactionHash": "0xd26ee5c09799de59cb8d7aafa502a24ad6e33d1052c14480daf96265169c3c26",
          "transactionIndex": "0x2",
          "blockHash": "0x7d3a862fe040fcae4a69a22367f9e10a86f2a3e4e0d7caa96714b40e9dc38d9c",
          "blockNumber": "0x1642ea4",
          "from": "0xDA861C9DccFf6d1fEf7Cae71B5b538AF25063404",
          "to": "0x77B40546E426019B3B2677D98b0f957262298c51",
          "cumulativeGasUsed": "0x5e140",
          "gasUsed": "0xb5c4",
          "contractAddress": null,
          "logs": [],
          "status": "0x1",
          "logsBloom": "0x00000000000000000000000000000000000000000000000000000000000000000000000000000000000000000000000000000000000000000000000000000000000000000000000000000000000000000000000000000000000000000000000000000000000000000000000000000000000000000000000000000000000000000000000000000000000000000000000000000000000000000000000000000000000000000000000000000000000000000000000000000000000000000000000000000000000000000000000000000000000000000000000000000000000000000000000000000000000000000000000000000000000000000000000000000000",
          "type": "0x2",
          "effectiveGasPrice": "0x684ee1800"
        },
        {
          "transactionHash": "0xd415915dadd29f550186e1cbb4958c5098be83663f9a8fe6a76336ccdecd5b9e",
          "transactionIndex": "0x6",
          "blockHash": "0x51fca47da75f3ebf44e067caa3e2d056d2c2ddfb41f2842b0dd528398ab2640f",
          "blockNumber": "0x1642ea5",
          "from": "0xDA861C9DccFf6d1fEf7Cae71B5b538AF25063404",
          "to": "0x77B40546E426019B3B2677D98b0f957262298c51",
          "cumulativeGasUsed": "0xb0328",
          "gasUsed": "0xb52c",
          "contractAddress": null,
          "logs": [],
          "status": "0x1",
          "logsBloom": "0x00000000000000000000000000000000000000000000000000000000000000000000000000000000000000000000000000000000000000000000000000000000000000000000000000000000000000000000000000000000000000000000000000000000000000000000000000000000000000000000000000000000000000000000000000000000000000000000000000000000000000000000000000000000000000000000000000000000000000000000000000000000000000000000000000000000000000000000000000000000000000000000000000000000000000000000000000000000000000000000000000000000000000000000000000000000",
          "type": "0x2",
          "effectiveGasPrice": "0x684ee1800"
        },
        {
          "transactionHash": "0x1d18c53b69975219233de1285a7434a6ce4a68d3d430c13e504d3d26fb0d1017",
          "transactionIndex": "0x3",
          "blockHash": "0x857940ab8e6616973b8fb09d25965d1ca53be018ad4f55163ceb03909303d87f",
          "blockNumber": "0x1642ea6",
          "from": "0xDA861C9DccFf6d1fEf7Cae71B5b538AF25063404",
          "to": "0x77B40546E426019B3B2677D98b0f957262298c51",
          "cumulativeGasUsed": "0x44baa",
          "gasUsed": "0xb4f2",
          "contractAddress": null,
          "logs": [],
          "status": "0x1",
          "logsBloom": "0x00000000000000000000000000000000000000000000000000000000000000000000000000000000000000000000000000000000000000000000000000000000000000000000000000000000000000000000000000000000000000000000000000000000000000000000000000000000000000000000000000000000000000000000000000000000000000000000000000000000000000000000000000000000000000000000000000000000000000000000000000000000000000000000000000000000000000000000000000000000000000000000000000000000000000000000000000000000000000000000000000000000000000000000000000000000",
          "type": "0x2",
          "effectiveGasPrice": "0x684ee1800"
        },
        {
          "transactionHash": "0xd8e7fe9cba6d3884ebaace56d3646764ef198b246f553d183458035fb413d302",
          "transactionIndex": "0x2",
          "blockHash": "0x07b68f91df57c887c35af8baee8af8829a504221159c49af44170c60c097db8d",
          "blockNumber": "0x1642ea7",
          "from": "0xDA861C9DccFf6d1fEf7Cae71B5b538AF25063404",
          "to": "0x77B40546E426019B3B2677D98b0f957262298c51",
          "cumulativeGasUsed": "0x55a1f",
          "gasUsed": "0xb43a",
          "contractAddress": null,
          "logs": [],
          "status": "0x1",
          "logsBloom": "0x00000000000000000000000000000000000000000000000000000000000000000000000000000000000000000000000000000000000000000000000000000000000000000000000000000000000000000000000000000000000000000000000000000000000000000000000000000000000000000000000000000000000000000000000000000000000000000000000000000000000000000000000000000000000000000000000000000000000000000000000000000000000000000000000000000000000000000000000000000000000000000000000000000000000000000000000000000000000000000000000000000000000000000000000000000000",
          "type": "0x2",
          "effectiveGasPrice": "0x684ee1800"
        },
        {
          "transactionHash": "0x277c0d5eb16eb9f2764666a54be233512046cd8f8e3e461478bf81b237a69728",
          "transactionIndex": "0x0",
          "blockHash": "0x4276477c0cb5253a0bf5448cdfea716facd2d75a5793f567f8b1dafa7753bc9f",
          "blockNumber": "0x1642ea8",
          "from": "0xDA861C9DccFf6d1fEf7Cae71B5b538AF25063404",
          "to": "0x77B40546E426019B3B2677D98b0f957262298c51",
          "cumulativeGasUsed": "0xb5b7",
          "gasUsed": "0xb5b7",
          "contractAddress": null,
          "logs": [],
          "status": "0x1",
          "logsBloom": "0x00000000000000000000000000000000000000000000000000000000000000000000000000000000000000000000000000000000000000000000000000000000000000000000000000000000000000000000000000000000000000000000000000000000000000000000000000000000000000000000000000000000000000000000000000000000000000000000000000000000000000000000000000000000000000000000000000000000000000000000000000000000000000000000000000000000000000000000000000000000000000000000000000000000000000000000000000000000000000000000000000000000000000000000000000000000",
          "type": "0x2",
          "effectiveGasPrice": "0x684ee1800"
        },
        {
          "transactionHash": "0x76ed331cc826bd49e8cb8bbf9dc993740ed96f0e088790aad04bd6627651b218",
          "transactionIndex": "0x1",
          "blockHash": "0x4276477c0cb5253a0bf5448cdfea716facd2d75a5793f567f8b1dafa7753bc9f",
          "blockNumber": "0x1642ea8",
          "from": "0xDA861C9DccFf6d1fEf7Cae71B5b538AF25063404",
          "to": "0x77B40546E426019B3B2677D98b0f957262298c51",
          "cumulativeGasUsed": "0x11d79",
          "gasUsed": "0x67c2",
          "contractAddress": null,
          "logs": [],
          "status": "0x1",
          "logsBloom": "0x00000000000000000000000000000000000000000000000000000000000000000000000000000000000000000000000000000000000000000000000000000000000000000000000000000000000000000000000000000000000000000000000000000000000000000000000000000000000000000000000000000000000000000000000000000000000000000000000000000000000000000000000000000000000000000000000000000000000000000000000000000000000000000000000000000000000000000000000000000000000000000000000000000000000000000000000000000000000000000000000000000000000000000000000000000000",
          "type": "0x2",
          "effectiveGasPrice": "0x684ee1800"
        },
        {
          "transactionHash": "0xbb263ea54b859272d0f8a623a8c2e87ffed5230a9836559065b87f5f46bbc020",
          "transactionIndex": "0x2",
          "blockHash": "0x4276477c0cb5253a0bf5448cdfea716facd2d75a5793f567f8b1dafa7753bc9f",
          "blockNumber": "0x1642ea8",
          "from": "0xDA861C9DccFf6d1fEf7Cae71B5b538AF25063404",
          "to": "0x77B40546E426019B3B2677D98b0f957262298c51",
          "cumulativeGasUsed": "0x1d1fb",
          "gasUsed": "0xb482",
          "contractAddress": null,
          "logs": [],
          "status": "0x1",
          "logsBloom": "0x00000000000000000000000000000000000000000000000000000000000000000000000000000000000000000000000000000000000000000000000000000000000000000000000000000000000000000000000000000000000000000000000000000000000000000000000000000000000000000000000000000000000000000000000000000000000000000000000000000000000000000000000000000000000000000000000000000000000000000000000000000000000000000000000000000000000000000000000000000000000000000000000000000000000000000000000000000000000000000000000000000000000000000000000000000000",
          "type": "0x2",
          "effectiveGasPrice": "0x684ee1800"
        },
        {
          "transactionHash": "0x070b65be3820c30b9c9bf3bed07951d63ee5fb2b71c3c308301a3427b65e2863",
          "transactionIndex": "0x0",
          "blockHash": "0x71b6214e0837371fd72b6fc54837df58c72bf4e9cf4c625c7bc4008d19029ff9",
          "blockNumber": "0x1642ea9",
          "from": "0xDA861C9DccFf6d1fEf7Cae71B5b538AF25063404",
          "to": "0x77B40546E426019B3B2677D98b0f957262298c51",
          "cumulativeGasUsed": "0xb642",
          "gasUsed": "0xb642",
          "contractAddress": null,
          "logs": [],
          "status": "0x1",
          "logsBloom": "0x00000000000000000000000000000000000000000000000000000000000000000000000000000000000000000000000000000000000000000000000000000000000000000000000000000000000000000000000000000000000000000000000000000000000000000000000000000000000000000000000000000000000000000000000000000000000000000000000000000000000000000000000000000000000000000000000000000000000000000000000000000000000000000000000000000000000000000000000000000000000000000000000000000000000000000000000000000000000000000000000000000000000000000000000000000000",
          "type": "0x2",
          "effectiveGasPrice": "0x684ee1800"
        },
        {
          "transactionHash": "0xb26111c20d4b1585d67130b1f285a1d97cdcc692888c33911bb753de9cd969b1",
          "transactionIndex": "0x1",
          "blockHash": "0x44ee13d0f6b2a0b84837d8e73cb1689a0039251f2371ba56f42ea57459e29751",
          "blockNumber": "0x1642eaa",
          "from": "0xDA861C9DccFf6d1fEf7Cae71B5b538AF25063404",
          "to": "0x54A2faaa64CAf9B47af4527a0E6E60F4749640d0",
          "cumulativeGasUsed": "0x50494",
          "gasUsed": "0xaca0",
          "contractAddress": null,
          "logs": [],
          "status": "0x1",
          "logsBloom": "0x00000000000000000000000000000000000000000000000000000000000000000000000000000000000000000000000000000000000000000000000000000000000000000000000000000000000000000000000000000000000000000000000000000000000000000000000000000000000000000000000000000000000000000000000000000000000000000000000000000000000000000000000000000000000000000000000000000000000000000000000000000000000000000000000000000000000000000000000000000000000000000000000000000000000000000000000000000000000000000000000000000000000000000000000000000000",
          "type": "0x2",
          "effectiveGasPrice": "0x684ee1800"
        }
      ],
      "libraries": [],
      "pending": [],
      "returns": {},
      "timestamp": 1687361017,
      "chain": 43113,
      "multi": true,
      "commit": "61e8658"
    }
  ],
  "path": "/Users/ankurdubey/Code/biconomy/brn/POC-DRN/broadcast/multi/Wormhole.Deployment.s.sol-latest/run.json",
  "timestamp": 1687361046
}